{
  "contractName": "Applicants",
  "abi": [
    {
      "anonymous": false,
      "inputs": [
        {
          "indexed": true,
          "internalType": "address",
          "name": "_address",
          "type": "address"
        }
      ],
      "name": "ApplicantsAppend",
      "type": "event"
    },
    {
      "constant": false,
      "inputs": [
        {
          "internalType": "address",
          "name": "_address",
          "type": "address"
        },
        {
          "internalType": "string",
          "name": "_fileName",
          "type": "string"
        }
      ],
      "name": "updateIdentification",
      "outputs": [
        {
          "internalType": "bool",
          "name": "",
          "type": "bool"
        },
        {
          "internalType": "string",
          "name": "",
          "type": "string"
        }
      ],
      "payable": false,
      "stateMutability": "nonpayable",
      "type": "function"
    },
    {
      "constant": true,
      "inputs": [
        {
          "internalType": "address",
          "name": "_address",
          "type": "address"
        },
        {
          "internalType": "string",
          "name": "_fileName",
          "type": "string"
        },
        {
          "internalType": "string",
          "name": "_administrativeCode",
          "type": "string"
        }
      ],
      "name": "identificationFound",
      "outputs": [
        {
          "internalType": "bool",
          "name": "",
          "type": "bool"
        },
        {
          "internalType": "uint256",
          "name": "",
          "type": "uint256"
        }
      ],
      "payable": false,
      "stateMutability": "view",
      "type": "function"
    },
    {
      "constant": true,
      "inputs": [
        {
          "internalType": "address",
          "name": "_address",
          "type": "address"
        },
        {
          "internalType": "string",
          "name": "_fileName",
          "type": "string"
        },
        {
          "internalType": "string",
          "name": "_administrativeCode",
          "type": "string"
        }
      ],
      "name": "getIdentificationDetails",
      "outputs": [
        {
          "components": [
            {
              "internalType": "string",
              "name": "filename",
              "type": "string"
            },
            {
              "internalType": "bool",
              "name": "exists",
              "type": "bool"
            }
          ],
          "internalType": "struct Applicants.Identification",
          "name": "",
          "type": "tuple"
        }
      ],
      "payable": false,
      "stateMutability": "view",
      "type": "function"
    },
    {
      "constant": false,
      "inputs": [
        {
          "internalType": "address",
          "name": "_address",
          "type": "address"
        },
        {
          "internalType": "string",
          "name": "_fileName",
          "type": "string"
        }
      ],
      "name": "deleteIdentification",
      "outputs": [
        {
          "internalType": "bool",
          "name": "",
          "type": "bool"
        },
        {
          "internalType": "string",
          "name": "",
          "type": "string"
        }
      ],
      "payable": false,
      "stateMutability": "nonpayable",
      "type": "function"
    },
    {
      "constant": false,
      "inputs": [
        {
          "internalType": "address",
          "name": "_address",
          "type": "address"
        },
        {
          "internalType": "string",
          "name": "_name",
          "type": "string"
        },
        {
          "internalType": "string",
          "name": "_physicalAddress",
          "type": "string"
        },
        {
          "internalType": "string",
          "name": "_location",
          "type": "string"
        },
        {
          "internalType": "string",
          "name": "_nationality",
          "type": "string"
        },
        {
          "internalType": "string",
          "name": "_administrativeCode",
          "type": "string"
        }
      ],
      "name": "setApplicant",
      "outputs": [
        {
          "internalType": "bool",
          "name": "",
          "type": "bool"
        }
      ],
      "payable": false,
      "stateMutability": "nonpayable",
      "type": "function"
    },
    {
      "constant": true,
      "inputs": [
        {
          "internalType": "string",
          "name": "_administrativeCode",
          "type": "string"
        }
      ],
      "name": "getApplicants",
      "outputs": [
        {
          "internalType": "address[]",
          "name": "",
          "type": "address[]"
        }
      ],
      "payable": false,
      "stateMutability": "view",
      "type": "function"
    },
    {
      "constant": true,
      "inputs": [
        {
          "internalType": "address",
          "name": "_address",
          "type": "address"
        },
        {
          "internalType": "string",
          "name": "_administrativeCode",
          "type": "string"
        }
      ],
      "name": "getApplicantProfile",
      "outputs": [
        {
          "components": [
            {
              "internalType": "string",
              "name": "name",
              "type": "string"
            },
            {
              "internalType": "uint256",
              "name": "nameChanges",
              "type": "uint256"
            },
            {
              "internalType": "string",
              "name": "physicalAddress",
              "type": "string"
            },
            {
              "internalType": "string",
              "name": "location",
              "type": "string"
            },
            {
              "internalType": "string",
              "name": "nationality",
              "type": "string"
            },
            {
              "internalType": "bool",
              "name": "exists",
              "type": "bool"
            },
            {
              "internalType": "string[]",
              "name": "experienceIdentifiers",
              "type": "string[]"
            },
            {
              "internalType": "string[]",
              "name": "skillIdentifiers",
              "type": "string[]"
            },
            {
              "internalType": "string[]",
              "name": "identificationIdentifiers",
              "type": "string[]"
            },
            {
              "components": [
                {
                  "internalType": "string",
                  "name": "currency",
                  "type": "string"
                },
                {
                  "internalType": "uint256",
                  "name": "amount",
                  "type": "uint256"
                }
              ],
              "internalType": "struct Applicants.Stipend",
              "name": "salaryFlooring",
              "type": "tuple"
            },
            {
              "components": [
                {
                  "internalType": "string",
                  "name": "currency",
                  "type": "string"
                },
                {
                  "internalType": "uint256",
                  "name": "amount",
                  "type": "uint256"
                }
              ],
              "internalType": "struct Applicants.Stipend",
              "name": "salaryCeiling",
              "type": "tuple"
            }
          ],
          "internalType": "struct Applicants.Applicant",
          "name": "",
          "type": "tuple"
        }
      ],
      "payable": false,
      "stateMutability": "view",
      "type": "function"
    },
    {
      "constant": false,
      "inputs": [
        {
          "internalType": "address",
          "name": "_address",
          "type": "address"
        },
        {
          "internalType": "string",
          "name": "_name",
          "type": "string"
        }
      ],
      "name": "updateName",
      "outputs": [
        {
          "internalType": "bool",
          "name": "",
          "type": "bool"
        },
        {
          "internalType": "uint256",
          "name": "",
          "type": "uint256"
        },
        {
          "internalType": "string",
          "name": "",
          "type": "string"
        }
      ],
      "payable": false,
      "stateMutability": "nonpayable",
      "type": "function"
    },
    {
      "constant": false,
      "inputs": [
        {
          "internalType": "address",
          "name": "_address",
          "type": "address"
        },
        {
          "internalType": "string",
          "name": "_physicalAddress",
          "type": "string"
        }
      ],
      "name": "updateAddress",
      "outputs": [
        {
          "internalType": "bool",
          "name": "",
          "type": "bool"
        },
        {
          "internalType": "string",
          "name": "",
          "type": "string"
        }
      ],
      "payable": false,
      "stateMutability": "nonpayable",
      "type": "function"
    },
    {
      "constant": false,
      "inputs": [
        {
          "internalType": "address",
          "name": "_address",
          "type": "address"
        },
        {
          "internalType": "string",
          "name": "_nationality",
          "type": "string"
        }
      ],
      "name": "updateNationality",
      "outputs": [
        {
          "internalType": "bool",
          "name": "",
          "type": "bool"
        },
        {
          "internalType": "string",
          "name": "",
          "type": "string"
        }
      ],
      "payable": false,
      "stateMutability": "nonpayable",
      "type": "function"
    },
    {
      "constant": false,
      "inputs": [
        {
          "internalType": "address",
          "name": "_address",
          "type": "address"
        },
        {
          "internalType": "string",
          "name": "_currency",
          "type": "string"
        },
        {
          "internalType": "uint256",
          "name": "_amount",
          "type": "uint256"
        }
      ],
      "name": "setSalaryFlooring",
      "outputs": [
        {
          "internalType": "bool",
          "name": "",
          "type": "bool"
        },
        {
          "internalType": "string",
          "name": "",
          "type": "string"
        }
      ],
      "payable": false,
      "stateMutability": "nonpayable",
      "type": "function"
    },
    {
      "constant": false,
      "inputs": [
        {
          "internalType": "address",
          "name": "_address",
          "type": "address"
        },
        {
          "internalType": "string",
          "name": "_currency",
          "type": "string"
        },
        {
          "internalType": "uint256",
          "name": "_amount",
          "type": "uint256"
        }
      ],
      "name": "setSalaryCeiling",
      "outputs": [
        {
          "internalType": "bool",
          "name": "",
          "type": "bool"
        },
        {
          "internalType": "string",
          "name": "",
          "type": "string"
        }
      ],
      "payable": false,
      "stateMutability": "nonpayable",
      "type": "function"
    },
    {
      "constant": true,
      "inputs": [
        {
          "internalType": "address",
          "name": "_address",
          "type": "address"
        },
        {
          "internalType": "string",
          "name": "_skillName",
          "type": "string"
        },
        {
          "internalType": "string",
          "name": "_administrativeCode",
          "type": "string"
        }
      ],
      "name": "getSkillDetails",
      "outputs": [
        {
          "components": [
            {
              "internalType": "string",
              "name": "name",
              "type": "string"
            },
            {
              "internalType": "enum Applicants.SkillLevel",
              "name": "level",
              "type": "uint8"
            },
            {
              "internalType": "bool",
              "name": "exists",
              "type": "bool"
            }
          ],
          "internalType": "struct Applicants.Skill",
          "name": "",
          "type": "tuple"
        }
      ],
      "payable": false,
      "stateMutability": "view",
      "type": "function"
    },
    {
      "constant": false,
      "inputs": [
        {
          "internalType": "address",
          "name": "_address",
          "type": "address"
        },
        {
          "internalType": "string",
          "name": "_skillName",
          "type": "string"
        },
        {
          "internalType": "uint256",
          "name": "_level",
          "type": "uint256"
        }
      ],
      "name": "updateSkill",
      "outputs": [
        {
          "internalType": "bool",
          "name": "",
          "type": "bool"
        },
        {
          "internalType": "string",
          "name": "",
          "type": "string"
        }
      ],
      "payable": false,
      "stateMutability": "nonpayable",
      "type": "function"
    },
    {
      "constant": true,
      "inputs": [
        {
          "internalType": "address",
          "name": "_address",
          "type": "address"
        },
        {
          "internalType": "string",
          "name": "_skillName",
          "type": "string"
        },
        {
          "internalType": "string",
          "name": "_administrativeCode",
          "type": "string"
        }
      ],
      "name": "skillFound",
      "outputs": [
        {
          "internalType": "bool",
          "name": "",
          "type": "bool"
        },
        {
          "internalType": "uint256",
          "name": "",
          "type": "uint256"
        }
      ],
      "payable": false,
      "stateMutability": "view",
      "type": "function"
    },
    {
      "constant": false,
      "inputs": [
        {
          "internalType": "address",
          "name": "_address",
          "type": "address"
        },
        {
          "internalType": "string",
          "name": "_skillName",
          "type": "string"
        }
      ],
      "name": "deleteSkill",
      "outputs": [
        {
          "internalType": "bool",
          "name": "",
          "type": "bool"
        },
        {
          "internalType": "string",
          "name": "",
          "type": "string"
        }
      ],
      "payable": false,
      "stateMutability": "nonpayable",
      "type": "function"
    },
    {
      "constant": true,
      "inputs": [
        {
          "internalType": "address",
          "name": "_address",
          "type": "address"
        },
        {
          "internalType": "string",
          "name": "_experienceName",
          "type": "string"
        },
        {
          "internalType": "string",
          "name": "_administrativeCode",
          "type": "string"
        }
      ],
      "name": "getExperienceDetails",
      "outputs": [
        {
          "components": [
            {
              "internalType": "string",
              "name": "positionTitle",
              "type": "string"
            },
            {
              "internalType": "string",
              "name": "companyName",
              "type": "string"
            },
            {
              "components": [
                {
                  "internalType": "uint256",
                  "name": "year",
                  "type": "uint256"
                },
                {
                  "internalType": "enum Applicants.ExpDurationMonth",
                  "name": "ExpDurationMonth",
                  "type": "uint8"
                }
              ],
              "internalType": "struct Applicants.ExpDurationStart",
              "name": "start",
              "type": "tuple"
            },
            {
              "components": [
                {
                  "internalType": "uint256",
                  "name": "year",
                  "type": "uint256"
                },
                {
                  "internalType": "enum Applicants.ExpDurationMonth",
                  "name": "ExpDurationMonth",
                  "type": "uint8"
                },
                {
                  "internalType": "bool",
                  "name": "present",
                  "type": "bool"
                }
              ],
              "internalType": "struct Applicants.ExpDurationEnd",
              "name": "end",
              "type": "tuple"
            },
            {
              "internalType": "string",
              "name": "specialization",
              "type": "string"
            },
            {
              "internalType": "string",
              "name": "role",
              "type": "string"
            },
            {
              "internalType": "string",
              "name": "country",
              "type": "string"
            },
            {
              "internalType": "string",
              "name": "industry",
              "type": "string"
            },
            {
              "internalType": "string",
              "name": "positionLevel",
              "type": "string"
            },
            {
              "components": [
                {
                  "internalType": "string",
                  "name": "currency",
                  "type": "string"
                },
                {
                  "internalType": "uint256",
                  "name": "amount",
                  "type": "uint256"
                }
              ],
              "internalType": "struct Applicants.Stipend",
              "name": "monthlySalary",
              "type": "tuple"
            },
            {
              "internalType": "string",
              "name": "description",
              "type": "string"
            },
            {
              "internalType": "bool",
              "name": "exists",
              "type": "bool"
            }
          ],
          "internalType": "struct Applicants.Experience",
          "name": "",
          "type": "tuple"
        }
      ],
      "payable": false,
      "stateMutability": "view",
      "type": "function"
    },
    {
      "constant": false,
      "inputs": [
        {
          "internalType": "address",
          "name": "_address",
          "type": "address"
        },
        {
          "internalType": "string",
          "name": "_experienceName",
          "type": "string"
        },
        {
          "internalType": "string[]",
          "name": "_details",
          "type": "string[]"
        },
        {
          "internalType": "uint256[]",
          "name": "_start",
          "type": "uint256[]"
        },
        {
          "internalType": "uint256[]",
          "name": "_end",
          "type": "uint256[]"
        },
        {
          "internalType": "bool",
          "name": "_present",
          "type": "bool"
        },
        {
          "internalType": "string",
          "name": "_currency",
          "type": "string"
        },
        {
          "internalType": "uint256",
          "name": "_amount",
          "type": "uint256"
        }
      ],
      "name": "updateExperience",
      "outputs": [
        {
          "internalType": "bool",
          "name": "",
          "type": "bool"
        },
        {
          "internalType": "string",
          "name": "",
          "type": "string"
        }
      ],
      "payable": false,
      "stateMutability": "nonpayable",
      "type": "function"
    },
    {
      "constant": true,
      "inputs": [
        {
          "internalType": "address",
          "name": "_address",
          "type": "address"
        },
        {
          "internalType": "string",
          "name": "_experienceName",
          "type": "string"
        },
        {
          "internalType": "string",
          "name": "_administrativeCode",
          "type": "string"
        }
      ],
      "name": "experienceFound",
      "outputs": [
        {
          "internalType": "bool",
          "name": "",
          "type": "bool"
        },
        {
          "internalType": "uint256",
          "name": "",
          "type": "uint256"
        }
      ],
      "payable": false,
      "stateMutability": "view",
      "type": "function"
    },
    {
      "constant": false,
      "inputs": [
        {
          "internalType": "address",
          "name": "_address",
          "type": "address"
        },
        {
          "internalType": "string",
          "name": "_experienceName",
          "type": "string"
        }
      ],
      "name": "deleteExperience",
      "outputs": [
        {
          "internalType": "bool",
          "name": "",
          "type": "bool"
        },
        {
          "internalType": "string",
          "name": "",
          "type": "string"
        }
      ],
      "payable": false,
      "stateMutability": "nonpayable",
      "type": "function"
    },
    {
      "constant": true,
      "inputs": [
        {
          "internalType": "string",
          "name": "a",
          "type": "string"
        },
        {
          "internalType": "string",
          "name": "b",
          "type": "string"
        }
      ],
      "name": "compareStrings",
      "outputs": [
        {
          "internalType": "bool",
          "name": "",
          "type": "bool"
        }
      ],
      "payable": false,
      "stateMutability": "pure",
      "type": "function"
    },
    {
      "constant": true,
      "inputs": [
        {
          "internalType": "address",
          "name": "x",
          "type": "address"
        }
      ],
      "name": "addressToString",
      "outputs": [
        {
          "internalType": "string",
          "name": "",
          "type": "string"
        }
      ],
      "payable": false,
      "stateMutability": "pure",
      "type": "function"
    }
  ],
  "bytecode": "0x608060405234801561001057600080fd5b50615db780620000216000396000f3fe608060405234801561001057600080fd5b50600436106101425760003560e01c806376faf18b116100b8578063b9308d9e1161007c578063b9308d9e14610451578063bed34bba14610483578063bffeb48f146104b3578063d8d8a8d2146104e4578063ddf06dc614610514578063fa94aded1461054557610142565b806376faf18b1461035d5780638bcb51171461038e578063a0d07922146103bf578063a2589248146103f0578063a2901e171461042057610142565b80635433dc9f1161010a5780635433dc9f1461023b5780635e57966d1461026b578063617e6c4f1461029b5780636a2584a5146102cc5780636fa74df7146102fc57806371589ffc1461032c57610142565b80631078a681146101475780631a589d181461017857806330903fa5146101a8578063329e5fc0146101d957806341d6bbd01461020a575b600080fd5b610161600480360361015c919081019061507a565b610576565b60405161016f9291906157fd565b60405180910390f35b610192600480360361018d9190810190614f79565b610749565b60405161019f91906157e2565b60405180910390f35b6101c260048036036101bd919081019061507a565b610d90565b6040516101d09291906157fd565b60405180910390f35b6101f360048036036101ee9190810190614d7c565b610f63565b6040516102019291906157fd565b60405180910390f35b610224600480360361021f9190810190614d7c565b61108a565b6040516102329291906157fd565b60405180910390f35b61025560048036036102509190810190614d7c565b611276565b60405161026291906158b6565b60405180910390f35b61028560048036036102809190810190614d53565b611a70565b6040516102929190615894565b60405180910390f35b6102b560048036036102b09190810190614efa565b611cf1565b6040516102c392919061582d565b60405180910390f35b6102e660048036036102e19190810190614efa565b611f15565b6040516102f3919061591c565b60405180910390f35b61031660048036036103119190810190614efa565b612150565b60405161032391906158fa565b60405180910390f35b61034660048036036103419190810190614dd0565b61235e565b6040516103549291906157fd565b60405180910390f35b61037760048036036103729190810190614d7c565b6127d0565b6040516103859291906157fd565b60405180910390f35b6103a860048036036103a39190810190614d7c565b612b3f565b6040516103b69291906157fd565b60405180910390f35b6103d960048036036103d49190810190614efa565b612c66565b6040516103e792919061582d565b60405180910390f35b61040a60048036036104059190810190614efa565b612e8a565b60405161041791906158d8565b60405180910390f35b61043a60048036036104359190810190614d7c565b613678565b6040516104489291906157fd565b60405180910390f35b61046b60048036036104669190810190614d7c565b6139e7565b60405161047a93929190615856565b60405180910390f35b61049d60048036036104989190810190615122565b613c84565b6040516104aa91906157e2565b60405180910390f35b6104cd60048036036104c89190810190614efa565b613cdd565b6040516104db92919061582d565b60405180910390f35b6104fe60048036036104f991908101906150e1565b613f01565b60405161050b91906157c0565b60405180910390f35b61052e6004803603610529919081019061507a565b613fdb565b60405161053c9291906157fd565b60405180910390f35b61055f600480360361055a9190810190614d7c565b6141f5565b60405161056d9291906157fd565b60405180910390f35b600060608473ffffffffffffffffffffffffffffffffffffffff163373ffffffffffffffffffffffffffffffffffffffff161415610721576105c78460405180602001604052806000815250613c84565b156106915761060b6040518060400160405280600381526020017f2d2d2d000000000000000000000000000000000000000000000000000000000081525084614564565b6000808773ffffffffffffffffffffffffffffffffffffffff1673ffffffffffffffffffffffffffffffffffffffff168152602001908152602001600020600b016000820151816000019080519060200190610668929190614728565b506020820151816001015590505060016040518060200160405280600081525091509150610741565b61069b8484614564565b6000808773ffffffffffffffffffffffffffffffffffffffff1673ffffffffffffffffffffffffffffffffffffffff168152602001908152602001600020600b0160008201518160000190805190602001906106f8929190614728565b506020820151816001015590505060016040518060200160405280600081525091509150610741565b6000604051806080016040528060498152602001615cdd60499139915091505b935093915050565b60008060008873ffffffffffffffffffffffffffffffffffffffff1673ffffffffffffffffffffffffffffffffffffffff16815260200190815260200160002060050160009054906101000a900460ff161580156107e257506107e1826040518060400160405280600481526020017f7375646f00000000000000000000000000000000000000000000000000000000815250613c84565b5b15610d815760008060008973ffffffffffffffffffffffffffffffffffffffff1673ffffffffffffffffffffffffffffffffffffffff1681526020019081526020016000209050868160000190805190602001906108419291906147a8565b50600081600101819055506108658660405180602001604052806000815250613c84565b156108fa576040518060400160405280600381526020017f2d2d2d00000000000000000000000000000000000000000000000000000000008152506000808a73ffffffffffffffffffffffffffffffffffffffff1673ffffffffffffffffffffffffffffffffffffffff16815260200190815260200160002060020190805190602001906108f49291906147a8565b50610951565b856000808a73ffffffffffffffffffffffffffffffffffffffff1673ffffffffffffffffffffffffffffffffffffffff168152602001908152602001600020600201908051906020019061094f9291906147a8565b505b61096a8660405180602001604052806000815250613c84565b156109ff576040518060400160405280600381526020017f2d2d2d00000000000000000000000000000000000000000000000000000000008152506000808a73ffffffffffffffffffffffffffffffffffffffff1673ffffffffffffffffffffffffffffffffffffffff16815260200190815260200160002060040190805190602001906109f99291906147a8565b50610a56565b836000808a73ffffffffffffffffffffffffffffffffffffffff1673ffffffffffffffffffffffffffffffffffffffff1681526020019081526020016000206004019080519060200190610a549291906147a8565b505b610a6f8560405180602001604052806000815250613c84565b15610b04576040518060400160405280600381526020017f2d2d2d00000000000000000000000000000000000000000000000000000000008152506000808a73ffffffffffffffffffffffffffffffffffffffff1673ffffffffffffffffffffffffffffffffffffffff1681526020019081526020016000206003019080519060200190610afe9291906147a8565b50610b5b565b846000808a73ffffffffffffffffffffffffffffffffffffffff1673ffffffffffffffffffffffffffffffffffffffff1681526020019081526020016000206003019080519060200190610b599291906147a8565b505b610b9b6040518060400160405280600381526020017f50687000000000000000000000000000000000000000000000000000000000008152506000614564565b6000808a73ffffffffffffffffffffffffffffffffffffffff1673ffffffffffffffffffffffffffffffffffffffff1681526020019081526020016000206009016000820151816000019080519060200190610bf8929190614728565b5060208201518160010155905050610c466040518060400160405280600381526020017f50687000000000000000000000000000000000000000000000000000000000008152506000614564565b6000808a73ffffffffffffffffffffffffffffffffffffffff1673ffffffffffffffffffffffffffffffffffffffff168152602001908152602001600020600b016000820151816000019080519060200190610ca3929190614728565b506020820151816001015590505060018160050160006101000a81548160ff02191690831515021790555060018890806001815401808255809150509060018203906000526020600020016000909192909190916101000a81548173ffffffffffffffffffffffffffffffffffffffff021916908373ffffffffffffffffffffffffffffffffffffffff160217905550508773ffffffffffffffffffffffffffffffffffffffff167f6a983d5cce1c533cca1f79ca71eda485f478ac58ae1aae34dee7a7d6a786f53f60405160405180910390a26001915050610d86565b600090505b9695505050505050565b600060608473ffffffffffffffffffffffffffffffffffffffff163373ffffffffffffffffffffffffffffffffffffffff161415610f3b57610de18460405180602001604052806000815250613c84565b15610eab57610e256040518060400160405280600381526020017f2d2d2d000000000000000000000000000000000000000000000000000000000081525084614564565b6000808773ffffffffffffffffffffffffffffffffffffffff1673ffffffffffffffffffffffffffffffffffffffff1681526020019081526020016000206009016000820151816000019080519060200190610e82929190614728565b506020820151816001015590505060016040518060200160405280600081525091509150610f5b565b610eb58484614564565b6000808773ffffffffffffffffffffffffffffffffffffffff1673ffffffffffffffffffffffffffffffffffffffff1681526020019081526020016000206009016000820151816000019080519060200190610f12929190614728565b506020820151816001015590505060016040518060200160405280600081525091509150610f5b565b6000604051806080016040528060498152602001615cdd60499139915091505b935093915050565b600060606000808573ffffffffffffffffffffffffffffffffffffffff1673ffffffffffffffffffffffffffffffffffffffff16815260200190815260200160002060050160009054906101000a900460ff168015610fed57508373ffffffffffffffffffffffffffffffffffffffff163373ffffffffffffffffffffffffffffffffffffffff16145b1561106357826000808673ffffffffffffffffffffffffffffffffffffffff1673ffffffffffffffffffffffffffffffffffffffff16815260200190815260200160002060020190805190602001906110479291906147a8565b5060016040518060200160405280600081525091509150611083565b6000604051806080016040528060498152602001615cdd60499139915091505b9250929050565b600060608061109885611a70565b846040516020016110aa929190615791565b60405160208183030381529060405290508473ffffffffffffffffffffffffffffffffffffffff163373ffffffffffffffffffffffffffffffffffffffff16141561124e576000600482604051611101919061577a565b90815260200160405180910390209050848160000190805190602001906111299291906147a8565b5060018160010160006101000a81548160ff021916908315150217905550600080611164888560405180602001604052806000815250613cdd565b8092508193505050600015158215151480156111ab575060048460405161118b919061577a565b908152602001604051809103902060010160009054906101000a900460ff165b1561122f576000808973ffffffffffffffffffffffffffffffffffffffff1673ffffffffffffffffffffffffffffffffffffffff16815260200190815260200160002060080184908060018154018082558091505090600182039060005260206000200160009091929091909150908051906020019061122c9291906147a8565b50505b600160405180602001604052806000815250955095505050505061126f565b6000604051806080016040528060498152602001615cdd6049913992509250505b9250929050565b61127e614828565b6112bd826040518060400160405280600481526020017f7375646f00000000000000000000000000000000000000000000000000000000815250613c84565b80156112f557508273ffffffffffffffffffffffffffffffffffffffff163373ffffffffffffffffffffffffffffffffffffffff1614155b8061132b57508273ffffffffffffffffffffffffffffffffffffffff163373ffffffffffffffffffffffffffffffffffffffff16145b15611a69576000808473ffffffffffffffffffffffffffffffffffffffff1673ffffffffffffffffffffffffffffffffffffffff16815260200190815260200160002060405180610160016040529081600082018054600181600116156101000203166002900480601f0160208091040260200160405190810160405280929190818152602001828054600181600116156101000203166002900480156114135780601f106113e857610100808354040283529160200191611413565b820191906000526020600020905b8154815290600101906020018083116113f657829003601f168201915b5050505050815260200160018201548152602001600282018054600181600116156101000203166002900480601f0160208091040260200160405190810160405280929190818152602001828054600181600116156101000203166002900480156114bf5780601f10611494576101008083540402835291602001916114bf565b820191906000526020600020905b8154815290600101906020018083116114a257829003601f168201915b50505050508152602001600382018054600181600116156101000203166002900480601f0160208091040260200160405190810160405280929190818152602001828054600181600116156101000203166002900480156115615780601f1061153657610100808354040283529160200191611561565b820191906000526020600020905b81548152906001019060200180831161154457829003601f168201915b50505050508152602001600482018054600181600116156101000203166002900480601f0160208091040260200160405190810160405280929190818152602001828054600181600116156101000203166002900480156116035780601f106115d857610100808354040283529160200191611603565b820191906000526020600020905b8154815290600101906020018083116115e657829003601f168201915b505050505081526020016005820160009054906101000a900460ff1615151515815260200160068201805480602002602001604051908101604052809291908181526020016000905b82821015611708578382906000526020600020018054600181600116156101000203166002900480601f0160208091040260200160405190810160405280929190818152602001828054600181600116156101000203166002900480156116f45780601f106116c9576101008083540402835291602001916116f4565b820191906000526020600020905b8154815290600101906020018083116116d757829003601f168201915b50505050508152602001906001019061164c565b50505050815260200160078201805480602002602001604051908101604052809291908181526020016000905b828210156117f1578382906000526020600020018054600181600116156101000203166002900480601f0160208091040260200160405190810160405280929190818152602001828054600181600116156101000203166002900480156117dd5780601f106117b2576101008083540402835291602001916117dd565b820191906000526020600020905b8154815290600101906020018083116117c057829003601f168201915b505050505081526020019060010190611735565b50505050815260200160088201805480602002602001604051908101604052809291908181526020016000905b828210156118da578382906000526020600020018054600181600116156101000203166002900480601f0160208091040260200160405190810160405280929190818152602001828054600181600116156101000203166002900480156118c65780601f1061189b576101008083540402835291602001916118c6565b820191906000526020600020905b8154815290600101906020018083116118a957829003601f168201915b50505050508152602001906001019061181e565b50505050815260200160098201604051806040016040529081600082018054600181600116156101000203166002900480601f01602080910402602001604051908101604052809291908181526020018280546001816001161561010002031660029004801561198b5780601f106119605761010080835404028352916020019161198b565b820191906000526020600020905b81548152906001019060200180831161196e57829003601f168201915b505050505081526020016001820154815250508152602001600b8201604051806040016040529081600082018054600181600116156101000203166002900480601f016020809104026020016040519081016040528092919081815260200182805460018160011615610100020316600290048015611a4b5780601f10611a2057610100808354040283529160200191611a4b565b820191906000526020600020905b815481529060010190602001808311611a2e57829003601f168201915b50505050508152602001600182015481525050815250509050611a6a565b5b92915050565b606060008273ffffffffffffffffffffffffffffffffffffffff1660001b905060606040518060400160405280601081526020017f303132333435363738396162636465660000000000000000000000000000000081525090506060602a6040519080825280601f01601f191660200182016040528015611b005781602001600182028038833980820191505090505b5090507f300000000000000000000000000000000000000000000000000000000000000081600081518110611b3157fe5b60200101907effffffffffffffffffffffffffffffffffffffffffffffffffffffffffffff1916908160001a9053507f780000000000000000000000000000000000000000000000000000000000000081600181518110611b8e57fe5b60200101907effffffffffffffffffffffffffffffffffffffffffffffffffffffffffffff1916908160001a90535060008090505b6014811015611ce55782600485600c840160208110611bde57fe5b1a60f81b7effffffffffffffffffffffffffffffffffffffffffffffffffffffffffffff1916901c60f81c60ff1681518110611c1657fe5b602001015160f81c60f81b826002830260020181518110611c3357fe5b60200101907effffffffffffffffffffffffffffffffffffffffffffffffffffffffffffff1916908160001a90535082600f60f81b85600c840160208110611c7757fe5b1a60f81b1660f81c60ff1681518110611c8c57fe5b602001015160f81c60f81b826002830260030181518110611ca957fe5b60200101907effffffffffffffffffffffffffffffffffffffffffffffffffffffffffffff1916908160001a9053508080600101915050611bc3565b50809350505050919050565b6000808473ffffffffffffffffffffffffffffffffffffffff163373ffffffffffffffffffffffffffffffffffffffff161480611d695750611d68836040518060400160405280600481526020017f7375646f00000000000000000000000000000000000000000000000000000000815250613c84565b5b15611f02576000809050600080905060008090505b6000808973ffffffffffffffffffffffffffffffffffffffff1673ffffffffffffffffffffffffffffffffffffffff16815260200190815260200160002060060180549050811015611edc57611ec26000808a73ffffffffffffffffffffffffffffffffffffffff1673ffffffffffffffffffffffffffffffffffffffff1681526020019081526020016000206006018281548110611e1957fe5b906000526020600020018054600181600116156101000203166002900480601f016020809104026020016040519081016040528092919081815260200182805460018160011615610100020316600290048015611eb75780601f10611e8c57610100808354040283529160200191611eb7565b820191906000526020600020905b815481529060010190602001808311611e9a57829003601f168201915b505050505088613c84565b15611ecf57600192508091505b8080600101915050611d7e565b508115611ef157600181935093505050611f0d565b600080809050935093505050611f0d565b600080809050915091505b935093915050565b611f1d614890565b611f5c826040518060400160405280600481526020017f7375646f00000000000000000000000000000000000000000000000000000000815250613c84565b8015611f9457508373ffffffffffffffffffffffffffffffffffffffff163373ffffffffffffffffffffffffffffffffffffffff1614155b80611fca57508373ffffffffffffffffffffffffffffffffffffffff163373ffffffffffffffffffffffffffffffffffffffff16145b1561214857600080611fdd868686612c66565b809250819350505060011515600386604051611ff9919061577a565b908152602001604051809103902060010160019054906101000a900460ff1615151480156120245750815b1561214557600385604051612039919061577a565b9081526020016040518091039020604051806060016040529081600082018054600181600116156101000203166002900480601f0160208091040260200160405190810160405280929190818152602001828054600181600116156101000203166002900480156120eb5780601f106120c0576101008083540402835291602001916120eb565b820191906000526020600020905b8154815290600101906020018083116120ce57829003601f168201915b505050505081526020016001820160009054906101000a900460ff16600381111561211257fe5b600381111561211d57fe5b81526020016001820160019054906101000a900460ff16151515158152505092505050612149565b50505b5b9392505050565b6121586148be565b612197826040518060400160405280600481526020017f7375646f00000000000000000000000000000000000000000000000000000000815250613c84565b80156121cf57508373ffffffffffffffffffffffffffffffffffffffff163373ffffffffffffffffffffffffffffffffffffffff1614155b8061220557508373ffffffffffffffffffffffffffffffffffffffff163373ffffffffffffffffffffffffffffffffffffffff16145b1561235657600080612218868686613cdd565b809250819350505060011515600486604051612234919061577a565b908152602001604051809103902060010160009054906101000a900460ff16151514801561225f5750815b1561235357600485604051612274919061577a565b9081526020016040518091039020604051806040016040529081600082018054600181600116156101000203166002900480601f0160208091040260200160405190810160405280929190818152602001828054600181600116156101000203166002900480156123265780601f106122fb57610100808354040283529160200191612326565b820191906000526020600020905b81548152906001019060200180831161230957829003601f168201915b505050505081526020016001820160009054906101000a900460ff16151515158152505092505050612357565b50505b5b9392505050565b600060608061236c8b611a70565b8a60405160200161237e929190615791565b60405160208183030381529060405290508a73ffffffffffffffffffffffffffffffffffffffff163373ffffffffffffffffffffffffffffffffffffffff1614156127a25760006002826040516123d5919061577a565b90815260200160405180910390209050896000815181106123f257fe5b60200260200101518160000190805190602001906124119291906147a8565b508960018151811061241f57fe5b602002602001015181600101908051906020019061243e9291906147a8565b508960028151811061244c57fe5b602002602001015181600601908051906020019061246b9291906147a8565b508960038151811061247957fe5b60200260200101518160070190805190602001906124989291906147a8565b50896004815181106124a657fe5b60200260200101518160080190805190602001906124c59291906147a8565b50896005815181106124d357fe5b60200260200101518160090190805190602001906124f29291906147a8565b508960068151811061250057fe5b602002602001015181600a01908051906020019061251f9291906147a8565b508960078151811061252d57fe5b602002602001015181600d01908051906020019061254c9291906147a8565b5061257f8960008151811061255d57fe5b60200260200101518a60018151811061257257fe5b6020026020010151614589565b816002016000820151816000015560208201518160010160006101000a81548160ff0219169083600c8111156125b157fe5b02179055509050506125ec886000815181106125c957fe5b6020026020010151896001815181106125de57fe5b6020026020010151896145c1565b816004016000820151816000015560208201518160010160006101000a81548160ff0219169083600c81111561261e57fe5b021790555060408201518160010160016101000a81548160ff0219169083151502179055509050506126508686614564565b81600b016000820151816000019080519060200190612670929190614728565b5060208201518160010155905050600181600e0160006101000a81548160ff0219169083151502179055506000806126b88e8560405180602001604052806000815250611cf1565b8092508193505050600015158215151480156126ff57506002846040516126df919061577a565b9081526020016040518091039020600e0160009054906101000a900460ff165b15612783576000808f73ffffffffffffffffffffffffffffffffffffffff1673ffffffffffffffffffffffffffffffffffffffff1681526020019081526020016000206006018490806001815401808255809150509060018203906000526020600020016000909192909190915090805190602001906127809291906147a8565b50505b60016040518060200160405280600081525095509550505050506127c3565b6000604051806080016040528060498152602001615cdd6049913992509250505b9850989650505050505050565b600060603373ffffffffffffffffffffffffffffffffffffffff168473ffffffffffffffffffffffffffffffffffffffff161415612b1857600080612825868660405180602001604052806000815250613cdd565b80925081935050506001151582151514801561286c575060048560405161284c919061577a565b908152602001604051809103902060010160009054906101000a900460ff165b15612afb576000600486604051612883919061577a565b908152602001604051809103902060010160006101000a81548160ff02191690831515021790555060008190505b60016000808973ffffffffffffffffffffffffffffffffffffffff1673ffffffffffffffffffffffffffffffffffffffff16815260200190815260200160002060080180549050038110156129dc576000808873ffffffffffffffffffffffffffffffffffffffff1673ffffffffffffffffffffffffffffffffffffffff168152602001908152602001600020600801600182018154811061294f57fe5b906000526020600020016000808973ffffffffffffffffffffffffffffffffffffffff1673ffffffffffffffffffffffffffffffffffffffff16815260200190815260200160002060080182815481106129a557fe5b9060005260206000200190805460018160011615610100020316600290046129ce9291906148da565b5080806001019150506128b1565b506000808773ffffffffffffffffffffffffffffffffffffffff1673ffffffffffffffffffffffffffffffffffffffff16815260200190815260200160002060080160016000808973ffffffffffffffffffffffffffffffffffffffff1673ffffffffffffffffffffffffffffffffffffffff168152602001908152602001600020600801805490500381548110612a7057fe5b906000526020600020016000612a869190614961565b60016000808873ffffffffffffffffffffffffffffffffffffffff1673ffffffffffffffffffffffffffffffffffffffff16815260200190815260200160002060080181818054905003915081612add91906149a9565b50600160405180602001604052806000815250935093505050612b38565b600160405180602001604052806000815250935093505050612b38565b6000604051806080016040528060538152602001615c8a60539139915091505b9250929050565b600060606000808573ffffffffffffffffffffffffffffffffffffffff1673ffffffffffffffffffffffffffffffffffffffff16815260200190815260200160002060050160009054906101000a900460ff168015612bc957508373ffffffffffffffffffffffffffffffffffffffff163373ffffffffffffffffffffffffffffffffffffffff16145b15612c3f57826000808673ffffffffffffffffffffffffffffffffffffffff1673ffffffffffffffffffffffffffffffffffffffff1681526020019081526020016000206004019080519060200190612c239291906147a8565b5060016040518060200160405280600081525091509150612c5f565b6000604051806080016040528060498152602001615cdd60499139915091505b9250929050565b6000808473ffffffffffffffffffffffffffffffffffffffff163373ffffffffffffffffffffffffffffffffffffffff161480612cde5750612cdd836040518060400160405280600481526020017f7375646f00000000000000000000000000000000000000000000000000000000815250613c84565b5b15612e77576000809050600080905060008090505b6000808973ffffffffffffffffffffffffffffffffffffffff1673ffffffffffffffffffffffffffffffffffffffff16815260200190815260200160002060070180549050811015612e5157612e376000808a73ffffffffffffffffffffffffffffffffffffffff1673ffffffffffffffffffffffffffffffffffffffff1681526020019081526020016000206007018281548110612d8e57fe5b906000526020600020018054600181600116156101000203166002900480601f016020809104026020016040519081016040528092919081815260200182805460018160011615610100020316600290048015612e2c5780601f10612e0157610100808354040283529160200191612e2c565b820191906000526020600020905b815481529060010190602001808311612e0f57829003601f168201915b505050505088613c84565b15612e4457600192508091505b8080600101915050612cf3565b508115612e6657600181935093505050612e82565b600080809050935093505050612e82565b600080809050915091505b935093915050565b612e926149d5565b612ed1826040518060400160405280600481526020017f7375646f00000000000000000000000000000000000000000000000000000000815250613c84565b8015612f0957508373ffffffffffffffffffffffffffffffffffffffff163373ffffffffffffffffffffffffffffffffffffffff1614155b80612f3f57508373ffffffffffffffffffffffffffffffffffffffff163373ffffffffffffffffffffffffffffffffffffffff16145b1561367057600080612f52868686611cf1565b809250819350505060011515600286604051612f6e919061577a565b9081526020016040518091039020600e0160009054906101000a900460ff161515148015612f995750815b1561366d57600285604051612fae919061577a565b908152602001604051809103902060405180610180016040529081600082018054600181600116156101000203166002900480601f0160208091040260200160405190810160405280929190818152602001828054600181600116156101000203166002900480156130615780601f1061303657610100808354040283529160200191613061565b820191906000526020600020905b81548152906001019060200180831161304457829003601f168201915b50505050508152602001600182018054600181600116156101000203166002900480601f0160208091040260200160405190810160405280929190818152602001828054600181600116156101000203166002900480156131035780601f106130d857610100808354040283529160200191613103565b820191906000526020600020905b8154815290600101906020018083116130e657829003601f168201915b5050505050815260200160028201604051806040016040529081600082015481526020016001820160009054906101000a900460ff16600c81111561314457fe5b600c81111561314f57fe5b81525050815260200160048201604051806060016040529081600082015481526020016001820160009054906101000a900460ff16600c81111561318f57fe5b600c81111561319a57fe5b81526020016001820160019054906101000a900460ff1615151515815250508152602001600682018054600181600116156101000203166002900480601f0160208091040260200160405190810160405280929190818152602001828054600181600116156101000203166002900480156132565780601f1061322b57610100808354040283529160200191613256565b820191906000526020600020905b81548152906001019060200180831161323957829003601f168201915b50505050508152602001600782018054600181600116156101000203166002900480601f0160208091040260200160405190810160405280929190818152602001828054600181600116156101000203166002900480156132f85780601f106132cd576101008083540402835291602001916132f8565b820191906000526020600020905b8154815290600101906020018083116132db57829003601f168201915b50505050508152602001600882018054600181600116156101000203166002900480601f01602080910402602001604051908101604052809291908181526020018280546001816001161561010002031660029004801561339a5780601f1061336f5761010080835404028352916020019161339a565b820191906000526020600020905b81548152906001019060200180831161337d57829003601f168201915b50505050508152602001600982018054600181600116156101000203166002900480601f01602080910402602001604051908101604052809291908181526020018280546001816001161561010002031660029004801561343c5780601f106134115761010080835404028352916020019161343c565b820191906000526020600020905b81548152906001019060200180831161341f57829003601f168201915b50505050508152602001600a82018054600181600116156101000203166002900480601f0160208091040260200160405190810160405280929190818152602001828054600181600116156101000203166002900480156134de5780601f106134b3576101008083540402835291602001916134de565b820191906000526020600020905b8154815290600101906020018083116134c157829003601f168201915b50505050508152602001600b8201604051806040016040529081600082018054600181600116156101000203166002900480601f0160208091040260200160405190810160405280929190818152602001828054600181600116156101000203166002900480156135905780601f1061356557610100808354040283529160200191613590565b820191906000526020600020905b81548152906001019060200180831161357357829003601f168201915b505050505081526020016001820154815250508152602001600d82018054600181600116156101000203166002900480601f0160208091040260200160405190810160405280929190818152602001828054600181600116156101000203166002900480156136405780601f1061361557610100808354040283529160200191613640565b820191906000526020600020905b81548152906001019060200180831161362357829003601f168201915b50505050508152602001600e820160009054906101000a900460ff16151515158152505092505050613671565b50505b5b9392505050565b600060603373ffffffffffffffffffffffffffffffffffffffff168473ffffffffffffffffffffffffffffffffffffffff1614156139c0576000806136cd868660405180602001604052806000815250611cf1565b80925081935050506001151582151514801561371457506002856040516136f4919061577a565b9081526020016040518091039020600e0160009054906101000a900460ff165b156139a357600060028660405161372b919061577a565b9081526020016040518091039020600e0160006101000a81548160ff02191690831515021790555060008190505b60016000808973ffffffffffffffffffffffffffffffffffffffff1673ffffffffffffffffffffffffffffffffffffffff1681526020019081526020016000206006018054905003811015613884576000808873ffffffffffffffffffffffffffffffffffffffff1673ffffffffffffffffffffffffffffffffffffffff16815260200190815260200160002060060160018201815481106137f757fe5b906000526020600020016000808973ffffffffffffffffffffffffffffffffffffffff1673ffffffffffffffffffffffffffffffffffffffff168152602001908152602001600020600601828154811061384d57fe5b9060005260206000200190805460018160011615610100020316600290046138769291906148da565b508080600101915050613759565b506000808773ffffffffffffffffffffffffffffffffffffffff1673ffffffffffffffffffffffffffffffffffffffff16815260200190815260200160002060060160016000808973ffffffffffffffffffffffffffffffffffffffff1673ffffffffffffffffffffffffffffffffffffffff16815260200190815260200160002060060180549050038154811061391857fe5b90600052602060002001600061392e9190614961565b60016000808873ffffffffffffffffffffffffffffffffffffffff1673ffffffffffffffffffffffffffffffffffffffff1681526020019081526020016000206006018181805490500391508161398591906149a9565b506001604051806020016040528060008152509350935050506139e0565b6001604051806020016040528060008152509350935050506139e0565b60006040518060800160405280604f8152602001615d26604f9139915091505b9250929050565b60008060606000808673ffffffffffffffffffffffffffffffffffffffff1673ffffffffffffffffffffffffffffffffffffffff16815260200190815260200160002060050160009054906101000a900460ff168015613a7257508473ffffffffffffffffffffffffffffffffffffffff163373ffffffffffffffffffffffffffffffffffffffff16145b15613c575760036000808773ffffffffffffffffffffffffffffffffffffffff1673ffffffffffffffffffffffffffffffffffffffff168152602001908152602001600020600101541015613bef57836000808773ffffffffffffffffffffffffffffffffffffffff1673ffffffffffffffffffffffffffffffffffffffff1681526020019081526020016000206000019080519060200190613b169291906147a8565b5060016000808773ffffffffffffffffffffffffffffffffffffffff1673ffffffffffffffffffffffffffffffffffffffff1681526020019081526020016000206001016000828254019250508190555060016000808773ffffffffffffffffffffffffffffffffffffffff1673ffffffffffffffffffffffffffffffffffffffff168152602001908152602001600020600101546003036040518060400160405280600d81526020017f4e616d65206368616e6765642100000000000000000000000000000000000000815250925092509250613c7d565b60008060008773ffffffffffffffffffffffffffffffffffffffff1673ffffffffffffffffffffffffffffffffffffffff16815260200190815260200160002060010154604051806060016040528060338152602001615c5760339139925092509250613c7d565b600080809050604051806080016040528060498152602001615cdd604991399250925092505b9250925092565b600081604051602001613c97919061577a565b6040516020818303038152906040528051906020012083604051602001613cbe919061577a565b6040516020818303038152906040528051906020012014905092915050565b6000808473ffffffffffffffffffffffffffffffffffffffff163373ffffffffffffffffffffffffffffffffffffffff161480613d555750613d54836040518060400160405280600481526020017f7375646f00000000000000000000000000000000000000000000000000000000815250613c84565b5b15613eee576000809050600080905060008090505b6000808973ffffffffffffffffffffffffffffffffffffffff1673ffffffffffffffffffffffffffffffffffffffff16815260200190815260200160002060080180549050811015613ec857613eae6000808a73ffffffffffffffffffffffffffffffffffffffff1673ffffffffffffffffffffffffffffffffffffffff1681526020019081526020016000206008018281548110613e0557fe5b906000526020600020018054600181600116156101000203166002900480601f016020809104026020016040519081016040528092919081815260200182805460018160011615610100020316600290048015613ea35780601f10613e7857610100808354040283529160200191613ea3565b820191906000526020600020905b815481529060010190602001808311613e8657829003601f168201915b505050505088613c84565b15613ebb57600192508091505b8080600101915050613d6a565b508115613edd57600181935093505050613ef9565b600080809050935093505050613ef9565b600080809050915091505b935093915050565b6060613f42826040518060400160405280600481526020017f7375646f00000000000000000000000000000000000000000000000000000000815250613c84565b15613fd5576001805480602002602001604051908101604052809291908181526020018280548015613fc957602002820191906000526020600020905b8160009054906101000a900473ffffffffffffffffffffffffffffffffffffffff1673ffffffffffffffffffffffffffffffffffffffff1681526020019060010190808311613f7f575b50505050509050613fd6565b5b919050565b6000606080613fe986611a70565b85604051602001613ffb929190615791565b60405160208183030381529060405290508573ffffffffffffffffffffffffffffffffffffffff163373ffffffffffffffffffffffffffffffffffffffff1614156141cc576000600382604051614052919061577a565b908152602001604051809103902090508581600001908051906020019061407a9291906147a8565b5061408485614602565b8160010160006101000a81548160ff021916908360038111156140a357fe5b021790555060018160010160016101000a81548160ff0219169083151502179055506000806140e2898560405180602001604052806000815250612c66565b8092508193505050600015158215151480156141295750600384604051614109919061577a565b908152602001604051809103902060010160019054906101000a900460ff165b156141ad576000808a73ffffffffffffffffffffffffffffffffffffffff1673ffffffffffffffffffffffffffffffffffffffff1681526020019081526020016000206007018490806001815401808255809150509060018203906000526020600020016000909192909190915090805190602001906141aa9291906147a8565b50505b60016040518060200160405280600081525095509550505050506141ed565b6000604051806080016040528060498152602001615cdd6049913992509250505b935093915050565b600060603373ffffffffffffffffffffffffffffffffffffffff168473ffffffffffffffffffffffffffffffffffffffff16141561453d5760008061424a868660405180602001604052806000815250612c66565b8092508193505050600115158215151480156142915750600385604051614271919061577a565b908152602001604051809103902060010160019054906101000a900460ff165b156145205760006003866040516142a8919061577a565b908152602001604051809103902060010160016101000a81548160ff02191690831515021790555060008190505b60016000808973ffffffffffffffffffffffffffffffffffffffff1673ffffffffffffffffffffffffffffffffffffffff1681526020019081526020016000206007018054905003811015614401576000808873ffffffffffffffffffffffffffffffffffffffff1673ffffffffffffffffffffffffffffffffffffffff168152602001908152602001600020600701600182018154811061437457fe5b906000526020600020016000808973ffffffffffffffffffffffffffffffffffffffff1673ffffffffffffffffffffffffffffffffffffffff16815260200190815260200160002060070182815481106143ca57fe5b9060005260206000200190805460018160011615610100020316600290046143f39291906148da565b5080806001019150506142d6565b506000808773ffffffffffffffffffffffffffffffffffffffff1673ffffffffffffffffffffffffffffffffffffffff16815260200190815260200160002060070160016000808973ffffffffffffffffffffffffffffffffffffffff1673ffffffffffffffffffffffffffffffffffffffff16815260200190815260200160002060070180549050038154811061449557fe5b9060005260206000200160006144ab9190614961565b60016000808873ffffffffffffffffffffffffffffffffffffffff1673ffffffffffffffffffffffffffffffffffffffff1681526020019081526020016000206007018181805490500391508161450291906149a9565b5060016040518060200160405280600081525093509350505061455d565b60016040518060200160405280600081525093509350505061455d565b60006040518060800160405280604a8152602001615c0d604a9139915091505b9250929050565b61456c614a4a565b604051806040016040528084815260200183815250905092915050565b614591614a64565b60405180604001604052808481526020016145ab84614644565b600c8111156145b657fe5b815250905092915050565b6145c9614a89565b60405180606001604052808581526020016145e385614644565b600c8111156145ee57fe5b815260200183151581525090509392505050565b60006001821415614616576001905061463f565b6002821415614628576002905061463f565b600382141561463a576003905061463f565b600090505b919050565b600060018214156146585760019050614723565b600282141561466a5760029050614723565b600382141561467c5760039050614723565b600482141561468e5760049050614723565b60058214156146a05760059050614723565b60068214156146b25760069050614723565b60078214156146c45760079050614723565b60088214156146d65760089050614723565b60098214156146e85760099050614723565b600a8214156146fa57600a9050614723565b600b82141561470c57600b9050614723565b600c82141561471e57600c9050614723565b600090505b919050565b828054600181600116156101000203166002900490600052602060002090601f016020900481019282601f1061476957805160ff1916838001178555614797565b82800160010185558215614797579182015b8281111561479657825182559160200191906001019061477b565b5b5090506147a49190614ab7565b5090565b828054600181600116156101000203166002900490600052602060002090601f016020900481019282601f106147e957805160ff1916838001178555614817565b82800160010185558215614817579182015b828111156148165782518255916020019190600101906147fb565b5b5090506148249190614ab7565b5090565b604051806101600160405280606081526020016000815260200160608152602001606081526020016060815260200160001515815260200160608152602001606081526020016060815260200161487d614adc565b815260200161488a614adc565b81525090565b604051806060016040528060608152602001600060038111156148af57fe5b81526020016000151581525090565b6040518060400160405280606081526020016000151581525090565b828054600181600116156101000203166002900490600052602060002090601f016020900481019282601f106149135780548555614950565b8280016001018555821561495057600052602060002091601f016020900482015b8281111561494f578254825591600101919060010190614934565b5b50905061495d9190614ab7565b5090565b50805460018160011615610100020316600290046000825580601f1061498757506149a6565b601f0160209004906000526020600020908101906149a59190614ab7565b5b50565b8154818355818111156149d0578183600052602060002091820191016149cf9190614af6565b5b505050565b60405180610180016040528060608152602001606081526020016149f7614b22565b8152602001614a04614b47565b81526020016060815260200160608152602001606081526020016060815260200160608152602001614a34614adc565b8152602001606081526020016000151581525090565b604051806040016040528060608152602001600081525090565b6040518060400160405280600081526020016000600c811115614a8357fe5b81525090565b6040518060600160405280600081526020016000600c811115614aa857fe5b81526020016000151581525090565b614ad991905b80821115614ad5576000816000905550600101614abd565b5090565b90565b604051806040016040528060608152602001600081525090565b614b1f91905b80821115614b1b5760008181614b129190614961565b50600101614afc565b5090565b90565b6040518060400160405280600081526020016000600c811115614b4157fe5b81525090565b6040518060600160405280600081526020016000600c811115614b6657fe5b81526020016000151581525090565b600081359050614b8481615bc7565b92915050565b600082601f830112614b9b57600080fd5b8135614bae614ba98261596b565b61593e565b9150818183526020840193506020810190508360005b83811015614bf45781358601614bda8882614c96565b845260208401935060208301925050600181019050614bc4565b5050505092915050565b600082601f830112614c0f57600080fd5b8135614c22614c1d82615993565b61593e565b91508181835260208401935060208101905083856020840282011115614c4757600080fd5b60005b83811015614c775781614c5d8882614d3e565b845260208401935060208301925050600181019050614c4a565b5050505092915050565b600081359050614c9081615bde565b92915050565b600082601f830112614ca757600080fd5b8135614cba614cb5826159bb565b61593e565b91508082526020830160208301858383011115614cd657600080fd5b614ce1838284615b5a565b50505092915050565b600082601f830112614cfb57600080fd5b8135614d0e614d09826159e7565b61593e565b91508082526020830160208301858383011115614d2a57600080fd5b614d35838284615b5a565b50505092915050565b600081359050614d4d81615bf5565b92915050565b600060208284031215614d6557600080fd5b6000614d7384828501614b75565b91505092915050565b60008060408385031215614d8f57600080fd5b6000614d9d85828601614b75565b925050602083013567ffffffffffffffff811115614dba57600080fd5b614dc685828601614cea565b9150509250929050565b600080600080600080600080610100898b031215614ded57600080fd5b6000614dfb8b828c01614b75565b985050602089013567ffffffffffffffff811115614e1857600080fd5b614e248b828c01614cea565b975050604089013567ffffffffffffffff811115614e4157600080fd5b614e4d8b828c01614b8a565b965050606089013567ffffffffffffffff811115614e6a57600080fd5b614e768b828c01614bfe565b955050608089013567ffffffffffffffff811115614e9357600080fd5b614e9f8b828c01614bfe565b94505060a0614eb08b828c01614c81565b93505060c089013567ffffffffffffffff811115614ecd57600080fd5b614ed98b828c01614cea565b92505060e0614eea8b828c01614d3e565b9150509295985092959890939650565b600080600060608486031215614f0f57600080fd5b6000614f1d86828701614b75565b935050602084013567ffffffffffffffff811115614f3a57600080fd5b614f4686828701614cea565b925050604084013567ffffffffffffffff811115614f6357600080fd5b614f6f86828701614cea565b9150509250925092565b60008060008060008060c08789031215614f9257600080fd5b6000614fa089828a01614b75565b965050602087013567ffffffffffffffff811115614fbd57600080fd5b614fc989828a01614cea565b955050604087013567ffffffffffffffff811115614fe657600080fd5b614ff289828a01614cea565b945050606087013567ffffffffffffffff81111561500f57600080fd5b61501b89828a01614cea565b935050608087013567ffffffffffffffff81111561503857600080fd5b61504489828a01614cea565b92505060a087013567ffffffffffffffff81111561506157600080fd5b61506d89828a01614cea565b9150509295509295509295565b60008060006060848603121561508f57600080fd5b600061509d86828701614b75565b935050602084013567ffffffffffffffff8111156150ba57600080fd5b6150c686828701614cea565b92505060406150d786828701614d3e565b9150509250925092565b6000602082840312156150f357600080fd5b600082013567ffffffffffffffff81111561510d57600080fd5b61511984828501614cea565b91505092915050565b6000806040838503121561513557600080fd5b600083013567ffffffffffffffff81111561514f57600080fd5b61515b85828601614cea565b925050602083013567ffffffffffffffff81111561517857600080fd5b61518485828601614cea565b9150509250929050565b600061519a83836151ba565b60208301905092915050565b60006151b28383615342565b905092915050565b6151c381615ac8565b82525050565b60006151d482615a33565b6151de8185615a79565b93506151e983615a13565b8060005b8381101561521a578151615201888261518e565b975061520c83615a5f565b9250506001810190506151ed565b5085935050505092915050565b600061523282615a3e565b61523c8185615a8a565b93508360208202850161524e85615a23565b8060005b8581101561528a578484038952815161526b85826151a6565b945061527683615a6c565b925060208a01995050600181019050615252565b50829750879550505050505092915050565b6152a581615ada565b82525050565b6152b481615ada565b82525050565b6152c381615b36565b82525050565b6152d281615b48565b82525050565b60006152e382615a54565b6152ed8185615aac565b93506152fd818560208601615b69565b61530681615b9c565b840191505092915050565b600061531c82615a54565b6153268185615abd565b9350615336818560208601615b69565b80840191505092915050565b600061534d82615a49565b6153578185615a9b565b9350615367818560208601615b69565b61537081615b9c565b840191505092915050565b6000615388600183615abd565b91507f2d000000000000000000000000000000000000000000000000000000000000006000830152600182019050919050565b60006101608301600083015184820360008601526153d98282615342565b91505060208301516153ee602086018261575c565b50604083015184820360408601526154068282615342565b915050606083015184820360608601526154208282615342565b9150506080830151848203608086015261543a8282615342565b91505060a083015161544f60a086018261529c565b5060c083015184820360c08601526154678282615227565b91505060e083015184820360e08601526154818282615227565b91505061010083015184820361010086015261549d8282615227565b9150506101208301518482036101208601526154b9828261571f565b9150506101408301518482036101408601526154d5828261571f565b9150508091505092915050565b6060820160008201516154f8600085018261575c565b50602082015161550b60208501826152ba565b50604082015161551e604085018261529c565b50505050565b60408201600082015161553a600085018261575c565b50602082015161554d60208501826152ba565b50505050565b60006101e08301600083015184820360008601526155718282615342565b9150506020830151848203602086015261558b8282615342565b91505060408301516155a06040860182615524565b5060608301516155b360808601826154e2565b50608083015184820360e08601526155cb8282615342565b91505060a08301518482036101008601526155e68282615342565b91505060c08301518482036101208601526156018282615342565b91505060e083015184820361014086015261561c8282615342565b9150506101008301518482036101608601526156388282615342565b915050610120830151848203610180860152615654828261571f565b9150506101408301518482036101a08601526156708282615342565b9150506101608301516156876101c086018261529c565b508091505092915050565b600060408301600083015184820360008601526156af8282615342565b91505060208301516156c4602086018261529c565b508091505092915050565b600060608301600083015184820360008601526156ec8282615342565b915050602083015161570160208601826152c9565b506040830151615714604086018261529c565b508091505092915050565b6000604083016000830151848203600086015261573c8282615342565b9150506020830151615751602086018261575c565b508091505092915050565b61576581615b2c565b82525050565b61577481615b2c565b82525050565b60006157868284615311565b915081905092915050565b600061579d8285615311565b91506157a88261537b565b91506157b48284615311565b91508190509392505050565b600060208201905081810360008301526157da81846151c9565b905092915050565b60006020820190506157f760008301846152ab565b92915050565b600060408201905061581260008301856152ab565b818103602083015261582481846152d8565b90509392505050565b600060408201905061584260008301856152ab565b61584f602083018461576b565b9392505050565b600060608201905061586b60008301866152ab565b615878602083018561576b565b818103604083015261588a81846152d8565b9050949350505050565b600060208201905081810360008301526158ae81846152d8565b905092915050565b600060208201905081810360008301526158d081846153bb565b905092915050565b600060208201905081810360008301526158f28184615553565b905092915050565b600060208201905081810360008301526159148184615692565b905092915050565b6000602082019050818103600083015261593681846156cf565b905092915050565b6000604051905081810181811067ffffffffffffffff8211171561596157600080fd5b8060405250919050565b600067ffffffffffffffff82111561598257600080fd5b602082029050602081019050919050565b600067ffffffffffffffff8211156159aa57600080fd5b602082029050602081019050919050565b600067ffffffffffffffff8211156159d257600080fd5b601f19601f8301169050602081019050919050565b600067ffffffffffffffff8211156159fe57600080fd5b601f19601f8301169050602081019050919050565b6000819050602082019050919050565b6000819050602082019050919050565b600081519050919050565b600081519050919050565b600081519050919050565b600081519050919050565b6000602082019050919050565b6000602082019050919050565b600082825260208201905092915050565b600082825260208201905092915050565b600082825260208201905092915050565b600082825260208201905092915050565b600081905092915050565b6000615ad382615b0c565b9050919050565b60008115159050919050565b6000819050615af482615bad565b919050565b6000819050615b0782615bba565b919050565b600073ffffffffffffffffffffffffffffffffffffffff82169050919050565b6000819050919050565b6000615b4182615ae6565b9050919050565b6000615b5382615af9565b9050919050565b82818337600083830152505050565b60005b83811015615b87578082015181840152602081019050615b6c565b83811115615b96576000848401525b50505050565b6000601f19601f8301169050919050565b600d8110615bb757fe5b50565b60048110615bc457fe5b50565b615bd081615ac8565b8114615bdb57600080fd5b50565b615be781615ada565b8114615bf257600080fd5b50565b615bfe81615b2c565b8114615c0957600080fd5b5056fe4f6e65206d7573742062652061626c6520746f206368616e6765206f776e20736b696c6c73206279206c6f6767696e6720696e2077697468206f6e652773206f776e206164647265737354686973206163636f756e74206578636565647320696e20746865206e756d626572206f66206e616d65206368616e6765732e4f6e65206d7573742062652061626c6520746f206368616e6765206f776e206964656e74696669636174696f6e73206279206c6f6767696e6720696e2077697468206f6e652773206f776e20616464726573734163636f756e7420686f6c64657220646f6573206e6f7420657869737473206f7220796f7520617265206e6f742074686520686f6c646572206f662074686973206163636f756e742e4f6e65206d7573742062652061626c6520746f206368616e6765206f776e20657870657269656e636573206279206c6f6767696e6720696e2077697468206f6e652773206f776e2061646472657373a365627a7a723158203dc429951496abae70c5b87e5d1327fc7981cbfbf82e261149a946b4b5c29c496c6578706572696d656e74616cf564736f6c63430005100040",
  "source": "pragma solidity >=0.4.21 <0.7.0;\r\n\r\nimport \"./Migrations.sol\";\r\npragma experimental ABIEncoderV2;\r\n\r\ncontract Applicants {\r\n    enum ExpDurationMonth {Zero, January, February, March, April, May, June, July, August, September, October, November, December}\r\n    enum SkillLevel {Default, Beginner, Intermediate, Advanced}\r\n    enum ProficiencyLevel {Default, Novice, Fluent, Intermediate, Advanced, Superior} // Customized ACTFL Proficiency (American Council on the Teaching of Foreign Language)\r\n\r\n    struct Applicant {\r\n        // Personal Information\r\n        string name;\r\n            uint nameChanges;\r\n        string physicalAddress;\r\n        string location;\r\n        string nationality;\r\n        bool exists;\r\n\r\n        // Experiences\r\n        string[] experienceIdentifiers;\r\n\r\n        // SKills\r\n        string[] skillIdentifiers;\r\n\r\n        // Identifications\r\n        string[] identificationIdentifiers;\r\n\r\n        // Salary Preference\r\n        Stipend salaryFlooring;\r\n        Stipend salaryCeiling;\r\n    }\r\n\r\n    struct Language {\r\n        string name;\r\n        ProficiencyLevel spokenProficiency;\r\n        ProficiencyLevel writtenProficiency;\r\n        bool exists;\r\n    }\r\n\r\n    struct Skill {\r\n        string name;\r\n        SkillLevel level;\r\n        bool exists;\r\n    }\r\n\r\n    struct Experience {\r\n        string positionTitle;\r\n        string companyName;\r\n        ExpDurationStart start;\r\n        ExpDurationEnd end;\r\n        string specialization;\r\n        string role;\r\n        string country;\r\n        string industry;\r\n        string positionLevel;\r\n        Stipend monthlySalary;\r\n        string description;\r\n        bool exists;\r\n    }\r\n\r\n    struct ExpDurationEnd {\r\n        uint year;\r\n        Applicants.ExpDurationMonth ExpDurationMonth;\r\n        bool present;\r\n    }\r\n\r\n    struct ExpDurationStart {\r\n        uint year;\r\n        Applicants.ExpDurationMonth ExpDurationMonth;\r\n    }\r\n\r\n    struct Stipend {\r\n        string currency;\r\n        uint amount;\r\n    }\r\n\r\n    struct Identification {\r\n        string filename;\r\n        bool exists;\r\n    }\r\n\r\n    mapping (address => Applicant) applicants;\r\n    address[] applicantAccts;\r\n    mapping (string => Experience) experiences;\r\n    mapping (string => Skill) skills;\r\n    mapping (string => Identification) identifications;\r\n\r\n\r\n    event ApplicantsAppend (address indexed _address);\r\n\r\n    // Identifications\r\n\r\n    function updateIdentification(\r\n        address _address, string memory _fileName\r\n    ) public returns (bool, string memory) {\r\n        string memory tempFileNameIdentifier = string(abi.encodePacked(addressToString(_address), \"-\", _fileName));\r\n        if (msg.sender == _address) {\r\n            Identification storage identification = identifications[tempFileNameIdentifier];\r\n            identification.filename = _fileName;\r\n            identification.exists = true;\r\n            bool _identificationFound;\r\n            uint _identificationIndex;\r\n            (_identificationFound, _identificationIndex) = identificationFound(_address, tempFileNameIdentifier, \"\");\r\n            if (_identificationFound == false && identifications[tempFileNameIdentifier].exists) {\r\n                applicants[_address].identificationIdentifiers.push(tempFileNameIdentifier);\r\n            }\r\n            return (true, \"\");\r\n        } else {\r\n            return (false, \"Account holder does not exists or you are not the holder of this account.\");\r\n        }\r\n    }\r\n\r\n    function identificationFound(address _address, string memory _fileName, string memory _administrativeCode) public view returns (bool, uint) {\r\n        if ((msg.sender == _address) || (compareStrings(_administrativeCode, \"sudo\"))) {\r\n            bool found = false;\r\n            uint index = 0;\r\n            for (uint i = 0; i < applicants[_address].identificationIdentifiers.length; i++) {\r\n                if (compareStrings(applicants[_address].identificationIdentifiers[i], _fileName)) {\r\n                    found = true;\r\n                    index = i;\r\n                }\r\n            }\r\n            if (found) {\r\n                return (true, index);\r\n            } else {\r\n                return (false, 0);\r\n            }\r\n        } else {\r\n            return (false, 0);\r\n        }\r\n    }\r\n\r\n    function getIdentificationDetails(address _address, string memory _fileName, string memory _administrativeCode) view public returns (Identification memory) {\r\n        if ((compareStrings(_administrativeCode,\"sudo\") && msg.sender != _address) || (msg.sender == _address)) {\r\n            bool _identificationExists;\r\n            uint _identificationIndex;\r\n            (_identificationExists, _identificationIndex) = identificationFound(_address, _fileName, _administrativeCode);\r\n            if (identifications[_fileName].exists == true && _identificationExists) {\r\n                return identifications[_fileName];\r\n            }\r\n        }\r\n    }\r\n\r\n    function deleteIdentification(address _address, string memory _fileName) public returns (bool, string memory) {\r\n        if (_address == msg.sender) {\r\n            bool _idenficationFound;\r\n            uint _identificationIndex;\r\n            (_idenficationFound, _identificationIndex) = identificationFound(_address, _fileName, \"\");\r\n            if (_idenficationFound == true && identifications[_fileName].exists) {\r\n                identifications[_fileName].exists = false;\r\n                for (uint i = _identificationIndex; i<applicants[_address].identificationIdentifiers.length-1; i++){\r\n                    applicants[_address].identificationIdentifiers[i] = applicants[_address].identificationIdentifiers[i+1];\r\n                }\r\n                delete applicants[_address].identificationIdentifiers[applicants[_address].identificationIdentifiers.length-1];\r\n                applicants[_address].identificationIdentifiers.length-=1;\r\n                return (true, \"\");\r\n            }\r\n            return (true, \"\");\r\n        } else {\r\n            return (false, \"One must be able to change own identifications by logging in with one's own address\");\r\n        }\r\n    }\r\n\r\n    // Applicants\r\n\r\n    function setApplicant (address _address, string memory _name, string memory _physicalAddress, string memory _location, string memory _nationality, string memory _administrativeCode) public returns (bool) {\r\n        if (!applicants[_address].exists && compareStrings(_administrativeCode,\"sudo\")) {\r\n            Applicant storage applicant = applicants[_address];\r\n            applicant.name = _name;\r\n            applicant.nameChanges = 0;\r\n            if (compareStrings(_physicalAddress,\"\")) {\r\n                applicants[_address].physicalAddress = \"---\";\r\n            } else {\r\n                applicants[_address].physicalAddress = _physicalAddress;\r\n            }\r\n            if (compareStrings(_physicalAddress,\"\")) {\r\n                applicants[_address].nationality = \"---\";\r\n            } else {\r\n                applicants[_address].nationality = _nationality;\r\n            }\r\n            if (compareStrings(_location,\"\")) {\r\n                applicants[_address].location = \"---\";\r\n            } else {\r\n                applicants[_address].location = _location;\r\n            }\r\n            applicants[_address].salaryFlooring = createStipend(\"Php\", 0);\r\n            applicants[_address].salaryCeiling = createStipend(\"Php\", 0);\r\n            applicant.exists = true;\r\n            applicantAccts.push(_address);\r\n            emit Applicants.ApplicantsAppend(_address);\r\n            return true;\r\n        } else {\r\n            return false;\r\n        }\r\n    }\r\n\r\n    function getApplicants(string memory _administrativeCode) view public returns(address[] memory) {\r\n        if (compareStrings(_administrativeCode,\"sudo\")) {\r\n            return applicantAccts;\r\n        }\r\n    }\r\n\r\n    function getApplicantProfile(address _address, string memory _administrativeCode) view public returns(Applicant memory) {\r\n        if ((compareStrings(_administrativeCode,\"sudo\") && msg.sender != _address) || (msg.sender == _address)) {\r\n            return applicants[_address];\r\n        }\r\n    }\r\n\r\n    function updateName (address _address, string memory _name) public returns (bool, uint, string memory) {\r\n        if (applicants[_address].exists && msg.sender == _address) {\r\n            if (applicants[_address].nameChanges < 3) {\r\n                applicants[_address].name = _name;\r\n                applicants[_address].nameChanges+=1;\r\n                return (true, 3-applicants[_address].nameChanges, \"Name changed!\" );\r\n            } else {\r\n                return (false, applicants[_address].nameChanges, \"This account exceeds in the number of name changes.\");\r\n            }\r\n        } else {\r\n            return (false, 0, \"Account holder does not exists or you are not the holder of this account.\");\r\n        }\r\n    }\r\n\r\n    function updateAddress(address _address, string memory _physicalAddress) public returns (bool, string memory) {\r\n        if (applicants[_address].exists && msg.sender == _address) {\r\n            applicants[_address].physicalAddress = _physicalAddress;\r\n            return (true, \"\");\r\n        } else {\r\n            return (false, \"Account holder does not exists or you are not the holder of this account.\");\r\n        }\r\n    }\r\n\r\n    function updateNationality(address _address, string memory _nationality) public returns (bool, string memory) {\r\n        if (applicants[_address].exists && msg.sender == _address) {\r\n            applicants[_address].nationality = _nationality;\r\n            return (true, \"\");\r\n        } else {\r\n            return (false, \"Account holder does not exists or you are not the holder of this account.\");\r\n        }\r\n    }\r\n\r\n    // Salary Preference Functions\r\n\r\n    function setSalaryFlooring(address _address, string memory _currency, uint _amount) public returns (bool, string memory){\r\n        if (msg.sender == _address) {\r\n            if (compareStrings(_currency,\"\")) {\r\n                applicants[_address].salaryFlooring = createStipend(\"---\", _amount);\r\n                return (true, \"\");\r\n            } else {\r\n                applicants[_address].salaryFlooring = createStipend(_currency, _amount);\r\n                return (true, \"\");\r\n            }\r\n        } else {\r\n            return (false, \"Account holder does not exists or you are not the holder of this account.\");\r\n        }\r\n    }\r\n\r\n    function setSalaryCeiling(address _address, string memory _currency, uint _amount) public returns (bool, string memory){\r\n        if (msg.sender == _address) {\r\n            if (compareStrings(_currency,\"\")) {\r\n                applicants[_address].salaryCeiling = createStipend(\"---\", _amount);\r\n                return (true, \"\");\r\n            } else {\r\n                applicants[_address].salaryCeiling = createStipend(_currency, _amount);\r\n                return (true, \"\");\r\n            }\r\n        } else {\r\n            return (false, \"Account holder does not exists or you are not the holder of this account.\");\r\n        }\r\n    }\r\n\r\n    // Skill Functions\r\n\r\n    function getSkillDetails(address _address, string memory _skillName, string memory _administrativeCode) view public returns (Skill memory) {\r\n        if ((compareStrings(_administrativeCode,\"sudo\") && msg.sender != _address) || (msg.sender == _address)) {\r\n            bool _skillExists;\r\n            uint _skillIndex;\r\n            (_skillExists, _skillIndex) = skillFound(_address, _skillName, _administrativeCode);\r\n            if (skills[_skillName].exists == true && _skillExists) {\r\n                return skills[_skillName];\r\n            }\r\n        }\r\n    }\r\n\r\n    function updateSkill(\r\n        address _address, string memory _skillName,\r\n        uint _level\r\n    ) public returns (bool, string memory) {\r\n        string memory tempSkillIdentifier = string(abi.encodePacked(addressToString(_address), \"-\", _skillName));\r\n        if (msg.sender == _address) {\r\n            Skill storage skill = skills[tempSkillIdentifier];\r\n            skill.name = _skillName;\r\n            skill.level = selectSkillLevel(_level);\r\n            skill.exists = true;\r\n            bool _skillFound;\r\n            uint _skillIndex;\r\n            (_skillFound, _skillIndex) = skillFound(_address, tempSkillIdentifier, \"\");\r\n            if (_skillFound == false && skills[tempSkillIdentifier].exists) {\r\n                applicants[_address].skillIdentifiers.push(tempSkillIdentifier);\r\n            }\r\n            return (true, \"\");\r\n        } else {\r\n            return (false, \"Account holder does not exists or you are not the holder of this account.\");\r\n        }\r\n    }\r\n\r\n    function skillFound(address _address, string memory _skillName, string memory _administrativeCode) public view returns (bool, uint) {\r\n        if ((msg.sender == _address) || (compareStrings(_administrativeCode, \"sudo\"))) {\r\n            bool found = false;\r\n            uint index = 0;\r\n            for (uint i = 0; i < applicants[_address].skillIdentifiers.length; i++) {\r\n                if (compareStrings(applicants[_address].skillIdentifiers[i], _skillName)) {\r\n                    found = true;\r\n                    index = i;\r\n                }\r\n            }\r\n            if (found) {\r\n                return (true, index);\r\n            } else {\r\n                return (false, 0);\r\n            }\r\n        } else {\r\n            return (false, 0);\r\n        }\r\n    }\r\n\r\n    function deleteSkill(address _address, string memory _skillName) public returns (bool, string memory) {\r\n        if (_address == msg.sender) {\r\n            bool _skillFound;\r\n            uint _skillIndex;\r\n            (_skillFound, _skillIndex) = skillFound(_address, _skillName, \"\");\r\n            if (_skillFound == true && skills[_skillName].exists) {\r\n                skills[_skillName].exists = false;\r\n                for (uint i = _skillIndex; i<applicants[_address].skillIdentifiers.length-1; i++){\r\n                    applicants[_address].skillIdentifiers[i] = applicants[_address].skillIdentifiers[i+1];\r\n                }\r\n                delete applicants[_address].skillIdentifiers[applicants[_address].skillIdentifiers.length-1];\r\n                applicants[_address].skillIdentifiers.length-=1;\r\n                return (true, \"\");\r\n            }\r\n            return (true, \"\");\r\n        } else {\r\n            return (false, \"One must be able to change own skills by logging in with one's own address\");\r\n        }\r\n    }\r\n\r\n    // Experience Functions\r\n\r\n    function getExperienceDetails(address _address, string memory _experienceName, string memory _administrativeCode) view public returns (Experience memory) {\r\n        if ((compareStrings(_administrativeCode,\"sudo\") && msg.sender != _address) || (msg.sender == _address)) {\r\n            bool _experienceExists;\r\n            uint _experienceIndex;\r\n            (_experienceExists, _experienceIndex) = experienceFound(_address, _experienceName, _administrativeCode);\r\n            if (experiences[_experienceName].exists == true && _experienceExists) {\r\n                return experiences[_experienceName];\r\n            }\r\n        }\r\n    }\r\n\r\n    function updateExperience(\r\n        address _address, string memory _experienceName,\r\n        string[] memory _details, uint[] memory _start, uint[] memory _end, bool _present,\r\n        string memory _currency, uint _amount\r\n    ) public returns (bool, string memory) {\r\n        string memory tempExperienceIdentifier = string(abi.encodePacked(addressToString(_address), \"-\", _experienceName));\r\n        if (msg.sender == _address) {\r\n            Experience storage experience = experiences[tempExperienceIdentifier];\r\n            experience.positionTitle = _details[0];\r\n            experience.companyName = _details[1];\r\n            experience.specialization = _details[2];\r\n            experience.role = _details[3];\r\n            experience.country = _details[4];\r\n            experience.industry = _details[5];\r\n            experience.positionLevel = _details[6];\r\n            experience.description = _details[7];\r\n            experience.start = createExpDurationStart(_start[0], _start[1]);\r\n            experience.end = createExpDurationEnd(_end[0], _end[1], _present);\r\n            experience.monthlySalary = createStipend(_currency, _amount);\r\n            experience.exists = true;\r\n            bool _experienceFound;\r\n            uint _experienceIndex;\r\n            (_experienceFound, _experienceIndex) = experienceFound(_address, tempExperienceIdentifier, \"\");\r\n            if (_experienceFound == false && experiences[tempExperienceIdentifier].exists) {\r\n                applicants[_address].experienceIdentifiers.push(tempExperienceIdentifier);\r\n            }\r\n            return (true, \"\");\r\n        } else {\r\n            return (false, \"Account holder does not exists or you are not the holder of this account.\");\r\n        }\r\n    }\r\n\r\n    function experienceFound(address _address, string memory _experienceName, string memory _administrativeCode) public view returns (bool, uint) {\r\n        if ((msg.sender == _address) || (compareStrings(_administrativeCode, \"sudo\"))) {\r\n            bool found = false;\r\n            uint index = 0;\r\n            for (uint i = 0; i < applicants[_address].experienceIdentifiers.length; i++) {\r\n                if (compareStrings(applicants[_address].experienceIdentifiers[i], _experienceName)) {\r\n                    found = true;\r\n                    index = i;\r\n                }\r\n            }\r\n            if (found) {\r\n                return (true, index);\r\n            } else {\r\n                return (false, 0);\r\n            }\r\n        } else {\r\n            return (false, 0);\r\n        }\r\n    }\r\n\r\n    function deleteExperience(address _address, string memory _experienceName) public returns (bool, string memory) {\r\n        if (_address == msg.sender) {\r\n            bool _experienceFound;\r\n            uint _experienceIndex;\r\n            (_experienceFound, _experienceIndex) = experienceFound(_address, _experienceName, \"\");\r\n            if (_experienceFound == true && experiences[_experienceName].exists) {\r\n                experiences[_experienceName].exists = false;\r\n                for (uint i = _experienceIndex; i<applicants[_address].experienceIdentifiers.length-1; i++){\r\n                    applicants[_address].experienceIdentifiers[i] = applicants[_address].experienceIdentifiers[i+1];\r\n                }\r\n                delete applicants[_address].experienceIdentifiers[applicants[_address].experienceIdentifiers.length-1];\r\n                applicants[_address].experienceIdentifiers.length-=1;\r\n                return (true, \"\");\r\n            }\r\n            return (true, \"\");\r\n        } else {\r\n            return (false, \"One must be able to change own experiences by logging in with one's own address\");\r\n        }\r\n    }\r\n\r\n\r\n    // Auxiliary Functions\r\n    function compareStrings (string memory a, string memory b) public pure returns (bool) {\r\n        return (keccak256(abi.encodePacked((a))) == keccak256(abi.encodePacked((b))));\r\n    }\r\n\r\n    function addressToString (address x) public pure returns (string memory) {\r\n        bytes32 value = bytes32(uint256(x));\r\n        bytes memory alphabet = \"0123456789abcdef\";\r\n\r\n        bytes memory str = new bytes(42);\r\n        str[0] = '0';\r\n        str[1] = 'x';\r\n        for (uint i = 0; i < 20; i++) {\r\n            str[2+i*2] = alphabet[uint(uint8(value[i + 12] >> 4))];\r\n            str[3+i*2] = alphabet[uint(uint8(value[i + 12] & 0x0f))];\r\n        }\r\n        return string(str);\r\n    }\r\n\r\n    function selectExpDurationMonth (uint _monthIndex) internal pure returns (Applicants.ExpDurationMonth) {\r\n        if (_monthIndex == 1) return Applicants.ExpDurationMonth.January;\r\n        if (_monthIndex == 2) return Applicants.ExpDurationMonth.February;\r\n        if (_monthIndex == 3) return Applicants.ExpDurationMonth.March;\r\n        if (_monthIndex == 4) return Applicants.ExpDurationMonth.April;\r\n        if (_monthIndex == 5) return Applicants.ExpDurationMonth.May;\r\n        if (_monthIndex == 6) return Applicants.ExpDurationMonth.June;\r\n        if (_monthIndex == 7) return Applicants.ExpDurationMonth.July;\r\n        if (_monthIndex == 8) return Applicants.ExpDurationMonth.August;\r\n        if (_monthIndex == 9) return Applicants.ExpDurationMonth.September;\r\n        if (_monthIndex == 10) return Applicants.ExpDurationMonth.October;\r\n        if (_monthIndex == 11) return Applicants.ExpDurationMonth.November;\r\n        if (_monthIndex == 12) return Applicants.ExpDurationMonth.December;\r\n        return Applicants.ExpDurationMonth.Zero;\r\n    }\r\n\r\n    function selectSkillLevel (uint _levelIndex) internal pure returns (Applicants.SkillLevel) {\r\n        if (_levelIndex == 1) return Applicants.SkillLevel.Beginner;\r\n        if (_levelIndex == 2) return Applicants.SkillLevel.Intermediate;\r\n        if (_levelIndex == 3) return Applicants.SkillLevel.Advanced;\r\n        return Applicants.SkillLevel.Default;\r\n    }\r\n\r\n    function createExpDurationStart (uint _year, uint _month) internal pure returns (Applicants.ExpDurationStart memory) {\r\n        return Applicants.ExpDurationStart(uint(_year), selectExpDurationMonth(_month));\r\n    }\r\n\r\n    function createExpDurationEnd (uint _year, uint _month, bool _present) internal pure returns (Applicants.ExpDurationEnd memory) {\r\n        return Applicants.ExpDurationEnd(uint(_year), selectExpDurationMonth(_month), _present);\r\n    }\r\n\r\n    function createStipend (string memory _currency, uint _amount) internal pure returns (Applicants.Stipend memory){\r\n        return Applicants.Stipend(_currency, _amount);\r\n    }\r\n}",
  "sourcePath": "/mnt/c/digitalMe/contracts/Applicants.sol",
  "compiler": {
    "name": "solc",
    "version": "0.5.16+commit.9c3226ce.Emscripten.clang"
  },
  "schemaVersion": "3.2.0",
  "updatedAt": "2020-07-14T06:23:42.931Z",
  "networkType": "ethereum",
  "devdoc": {
    "methods": {}
  },
  "userdoc": {
    "methods": {}
  }
}