{
  "contractName": "Workforce",
  "abi": [
    {
      "anonymous": false,
      "inputs": [
        {
          "indexed": true,
          "internalType": "address",
          "name": "_address",
          "type": "address"
        }
      ],
      "name": "WorkforceAppend",
      "type": "event"
    },
    {
      "constant": false,
      "inputs": [
        {
          "internalType": "address",
          "name": "_address",
          "type": "address"
        },
        {
          "internalType": "string",
          "name": "_name",
          "type": "string"
        },
        {
          "internalType": "string",
          "name": "_physicalAddress",
          "type": "string"
        },
        {
          "internalType": "string",
          "name": "_nationality",
          "type": "string"
        },
        {
          "internalType": "string",
          "name": "_administrativeCode",
          "type": "string"
        }
      ],
      "name": "setEmployee",
      "outputs": [
        {
          "internalType": "bool",
          "name": "",
          "type": "bool"
        }
      ],
      "payable": false,
      "stateMutability": "nonpayable",
      "type": "function"
    },
    {
      "constant": true,
      "inputs": [
        {
          "internalType": "string",
          "name": "_administrativeCode",
          "type": "string"
        }
      ],
      "name": "getEmployees",
      "outputs": [
        {
          "internalType": "address[]",
          "name": "",
          "type": "address[]"
        }
      ],
      "payable": false,
      "stateMutability": "view",
      "type": "function"
    },
    {
      "constant": true,
      "inputs": [
        {
          "internalType": "address",
          "name": "_address",
          "type": "address"
        },
        {
          "internalType": "string",
          "name": "_administrativeCode",
          "type": "string"
        }
      ],
      "name": "getEmployeeProfile",
      "outputs": [
        {
          "components": [
            {
              "internalType": "string",
              "name": "name",
              "type": "string"
            },
            {
              "internalType": "uint256",
              "name": "nameChanges",
              "type": "uint256"
            },
            {
              "internalType": "string",
              "name": "physicalAddress",
              "type": "string"
            },
            {
              "internalType": "string",
              "name": "nationality",
              "type": "string"
            },
            {
              "internalType": "bool",
              "name": "exists",
              "type": "bool"
            },
            {
              "internalType": "string[]",
              "name": "experienceIdentifiers",
              "type": "string[]"
            },
            {
              "internalType": "string[]",
              "name": "skillIdentifiers",
              "type": "string[]"
            },
            {
              "components": [
                {
                  "internalType": "string",
                  "name": "currency",
                  "type": "string"
                },
                {
                  "internalType": "uint256",
                  "name": "amount",
                  "type": "uint256"
                }
              ],
              "internalType": "struct Workforce.Stipend",
              "name": "salaryFlooring",
              "type": "tuple"
            },
            {
              "components": [
                {
                  "internalType": "string",
                  "name": "currency",
                  "type": "string"
                },
                {
                  "internalType": "uint256",
                  "name": "amount",
                  "type": "uint256"
                }
              ],
              "internalType": "struct Workforce.Stipend",
              "name": "salaryCeiling",
              "type": "tuple"
            }
          ],
          "internalType": "struct Workforce.Employee",
          "name": "",
          "type": "tuple"
        }
      ],
      "payable": false,
      "stateMutability": "view",
      "type": "function"
    },
    {
      "constant": false,
      "inputs": [
        {
          "internalType": "address",
          "name": "_address",
          "type": "address"
        },
        {
          "internalType": "string",
          "name": "_name",
          "type": "string"
        }
      ],
      "name": "updateName",
      "outputs": [
        {
          "internalType": "bool",
          "name": "",
          "type": "bool"
        },
        {
          "internalType": "uint256",
          "name": "",
          "type": "uint256"
        },
        {
          "internalType": "string",
          "name": "",
          "type": "string"
        }
      ],
      "payable": false,
      "stateMutability": "nonpayable",
      "type": "function"
    },
    {
      "constant": false,
      "inputs": [
        {
          "internalType": "address",
          "name": "_address",
          "type": "address"
        },
        {
          "internalType": "string",
          "name": "_physicalAddress",
          "type": "string"
        }
      ],
      "name": "updateAddress",
      "outputs": [
        {
          "internalType": "bool",
          "name": "",
          "type": "bool"
        },
        {
          "internalType": "string",
          "name": "",
          "type": "string"
        }
      ],
      "payable": false,
      "stateMutability": "nonpayable",
      "type": "function"
    },
    {
      "constant": false,
      "inputs": [
        {
          "internalType": "address",
          "name": "_address",
          "type": "address"
        },
        {
          "internalType": "string",
          "name": "_nationality",
          "type": "string"
        }
      ],
      "name": "updateNationality",
      "outputs": [
        {
          "internalType": "bool",
          "name": "",
          "type": "bool"
        },
        {
          "internalType": "string",
          "name": "",
          "type": "string"
        }
      ],
      "payable": false,
      "stateMutability": "nonpayable",
      "type": "function"
    },
    {
      "constant": false,
      "inputs": [
        {
          "internalType": "address",
          "name": "_address",
          "type": "address"
        },
        {
          "internalType": "string",
          "name": "_currency",
          "type": "string"
        },
        {
          "internalType": "uint256",
          "name": "_amount",
          "type": "uint256"
        }
      ],
      "name": "setSalaryFlooring",
      "outputs": [
        {
          "internalType": "bool",
          "name": "",
          "type": "bool"
        },
        {
          "internalType": "string",
          "name": "",
          "type": "string"
        }
      ],
      "payable": false,
      "stateMutability": "nonpayable",
      "type": "function"
    },
    {
      "constant": false,
      "inputs": [
        {
          "internalType": "address",
          "name": "_address",
          "type": "address"
        },
        {
          "internalType": "string",
          "name": "_currency",
          "type": "string"
        },
        {
          "internalType": "uint256",
          "name": "_amount",
          "type": "uint256"
        }
      ],
      "name": "setSalaryCeiling",
      "outputs": [
        {
          "internalType": "bool",
          "name": "",
          "type": "bool"
        },
        {
          "internalType": "string",
          "name": "",
          "type": "string"
        }
      ],
      "payable": false,
      "stateMutability": "nonpayable",
      "type": "function"
    },
    {
      "constant": true,
      "inputs": [
        {
          "internalType": "address",
          "name": "_address",
          "type": "address"
        },
        {
          "internalType": "string",
          "name": "_skillName",
          "type": "string"
        },
        {
          "internalType": "string",
          "name": "_administrativeCode",
          "type": "string"
        }
      ],
      "name": "getSkillDetails",
      "outputs": [
        {
          "components": [
            {
              "internalType": "string",
              "name": "name",
              "type": "string"
            },
            {
              "internalType": "enum Workforce.SkillLevel",
              "name": "level",
              "type": "uint8"
            },
            {
              "internalType": "bool",
              "name": "exists",
              "type": "bool"
            }
          ],
          "internalType": "struct Workforce.Skill",
          "name": "",
          "type": "tuple"
        }
      ],
      "payable": false,
      "stateMutability": "view",
      "type": "function"
    },
    {
      "constant": false,
      "inputs": [
        {
          "internalType": "address",
          "name": "_address",
          "type": "address"
        },
        {
          "internalType": "string",
          "name": "_skillName",
          "type": "string"
        },
        {
          "internalType": "uint256",
          "name": "_level",
          "type": "uint256"
        }
      ],
      "name": "updateSkill",
      "outputs": [
        {
          "internalType": "bool",
          "name": "",
          "type": "bool"
        },
        {
          "internalType": "string",
          "name": "",
          "type": "string"
        }
      ],
      "payable": false,
      "stateMutability": "nonpayable",
      "type": "function"
    },
    {
      "constant": true,
      "inputs": [
        {
          "internalType": "address",
          "name": "_address",
          "type": "address"
        },
        {
          "internalType": "string",
          "name": "_skillName",
          "type": "string"
        },
        {
          "internalType": "string",
          "name": "_administrativeCode",
          "type": "string"
        }
      ],
      "name": "skillFound",
      "outputs": [
        {
          "internalType": "bool",
          "name": "",
          "type": "bool"
        },
        {
          "internalType": "uint256",
          "name": "",
          "type": "uint256"
        }
      ],
      "payable": false,
      "stateMutability": "view",
      "type": "function"
    },
    {
      "constant": false,
      "inputs": [
        {
          "internalType": "address",
          "name": "_address",
          "type": "address"
        },
        {
          "internalType": "string",
          "name": "_skillName",
          "type": "string"
        }
      ],
      "name": "deleteSkill",
      "outputs": [
        {
          "internalType": "bool",
          "name": "",
          "type": "bool"
        },
        {
          "internalType": "string",
          "name": "",
          "type": "string"
        }
      ],
      "payable": false,
      "stateMutability": "nonpayable",
      "type": "function"
    },
    {
      "constant": true,
      "inputs": [
        {
          "internalType": "address",
          "name": "_address",
          "type": "address"
        },
        {
          "internalType": "string",
          "name": "_experienceName",
          "type": "string"
        },
        {
          "internalType": "string",
          "name": "_administrativeCode",
          "type": "string"
        }
      ],
      "name": "getExperienceDetails",
      "outputs": [
        {
          "components": [
            {
              "internalType": "string",
              "name": "positionTitle",
              "type": "string"
            },
            {
              "internalType": "string",
              "name": "companyName",
              "type": "string"
            },
            {
              "components": [
                {
                  "internalType": "uint256",
                  "name": "year",
                  "type": "uint256"
                },
                {
                  "internalType": "enum Workforce.ExpDurationMonth",
                  "name": "ExpDurationMonth",
                  "type": "uint8"
                }
              ],
              "internalType": "struct Workforce.ExpDurationStart",
              "name": "start",
              "type": "tuple"
            },
            {
              "components": [
                {
                  "internalType": "uint256",
                  "name": "year",
                  "type": "uint256"
                },
                {
                  "internalType": "enum Workforce.ExpDurationMonth",
                  "name": "ExpDurationMonth",
                  "type": "uint8"
                },
                {
                  "internalType": "bool",
                  "name": "present",
                  "type": "bool"
                }
              ],
              "internalType": "struct Workforce.ExpDurationEnd",
              "name": "end",
              "type": "tuple"
            },
            {
              "internalType": "string",
              "name": "specialization",
              "type": "string"
            },
            {
              "internalType": "string",
              "name": "role",
              "type": "string"
            },
            {
              "internalType": "string",
              "name": "country",
              "type": "string"
            },
            {
              "internalType": "string",
              "name": "industry",
              "type": "string"
            },
            {
              "internalType": "string",
              "name": "positionLevel",
              "type": "string"
            },
            {
              "components": [
                {
                  "internalType": "string",
                  "name": "currency",
                  "type": "string"
                },
                {
                  "internalType": "uint256",
                  "name": "amount",
                  "type": "uint256"
                }
              ],
              "internalType": "struct Workforce.Stipend",
              "name": "monthlySalary",
              "type": "tuple"
            },
            {
              "internalType": "string",
              "name": "description",
              "type": "string"
            },
            {
              "internalType": "bool",
              "name": "exists",
              "type": "bool"
            }
          ],
          "internalType": "struct Workforce.Experience",
          "name": "",
          "type": "tuple"
        }
      ],
      "payable": false,
      "stateMutability": "view",
      "type": "function"
    },
    {
      "constant": false,
      "inputs": [
        {
          "internalType": "address",
          "name": "_address",
          "type": "address"
        },
        {
          "internalType": "string",
          "name": "_experienceName",
          "type": "string"
        },
        {
          "internalType": "string[]",
          "name": "_details",
          "type": "string[]"
        },
        {
          "internalType": "uint256[]",
          "name": "_start",
          "type": "uint256[]"
        },
        {
          "internalType": "uint256[]",
          "name": "_end",
          "type": "uint256[]"
        },
        {
          "internalType": "bool",
          "name": "_present",
          "type": "bool"
        },
        {
          "internalType": "string",
          "name": "_currency",
          "type": "string"
        },
        {
          "internalType": "uint256",
          "name": "_amount",
          "type": "uint256"
        }
      ],
      "name": "updateExperience",
      "outputs": [
        {
          "internalType": "bool",
          "name": "",
          "type": "bool"
        },
        {
          "internalType": "string",
          "name": "",
          "type": "string"
        }
      ],
      "payable": false,
      "stateMutability": "nonpayable",
      "type": "function"
    },
    {
      "constant": true,
      "inputs": [
        {
          "internalType": "address",
          "name": "_address",
          "type": "address"
        },
        {
          "internalType": "string",
          "name": "_experienceName",
          "type": "string"
        },
        {
          "internalType": "string",
          "name": "_administrativeCode",
          "type": "string"
        }
      ],
      "name": "experienceFound",
      "outputs": [
        {
          "internalType": "bool",
          "name": "",
          "type": "bool"
        },
        {
          "internalType": "uint256",
          "name": "",
          "type": "uint256"
        }
      ],
      "payable": false,
      "stateMutability": "view",
      "type": "function"
    },
    {
      "constant": false,
      "inputs": [
        {
          "internalType": "address",
          "name": "_address",
          "type": "address"
        },
        {
          "internalType": "string",
          "name": "_experienceName",
          "type": "string"
        }
      ],
      "name": "deleteExperience",
      "outputs": [
        {
          "internalType": "bool",
          "name": "",
          "type": "bool"
        },
        {
          "internalType": "string",
          "name": "",
          "type": "string"
        }
      ],
      "payable": false,
      "stateMutability": "nonpayable",
      "type": "function"
    },
    {
      "constant": true,
      "inputs": [
        {
          "internalType": "string",
          "name": "a",
          "type": "string"
        },
        {
          "internalType": "string",
          "name": "b",
          "type": "string"
        }
      ],
      "name": "compareStrings",
      "outputs": [
        {
          "internalType": "bool",
          "name": "",
          "type": "bool"
        }
      ],
      "payable": false,
      "stateMutability": "pure",
      "type": "function"
    },
    {
      "constant": true,
      "inputs": [
        {
          "internalType": "address",
          "name": "x",
          "type": "address"
        }
      ],
      "name": "addressToString",
      "outputs": [
        {
          "internalType": "string",
          "name": "",
          "type": "string"
        }
      ],
      "payable": false,
      "stateMutability": "pure",
      "type": "function"
    }
  ],
  "bytecode": "0x608060405234801561001057600080fd5b50614f6c806100206000396000f3fe608060405234801561001057600080fd5b50600436106101165760003560e01c806371589ffc116100a2578063a2901e1711610071578063a2901e1714610392578063b9308d9e146103c3578063bed34bba146103f5578063ddf06dc614610425578063fa94aded1461045657610116565b806371589ffc146102cf5780638bcb511714610300578063a0d0792214610331578063a25892481461036257610116565b8063329e5fc0116100e9578063329e5fc0146101dd5780635c2ac6b61461020e5780635e57966d1461023e578063617e6c4f1461026e5780636a2584a51461029f57610116565b80631078a6811461011b578063119188211461014c5780631fb89b951461017c57806330903fa5146101ac575b600080fd5b61013560048036036101309190810190614319565b610487565b604051610143929190614a27565b60405180910390f35b61016660048036036101619190810190614242565b61065a565b6040516101739190614a0c565b60405180910390f35b61019660048036036101919190810190614045565b610b9b565b6040516101a39190614ae0565b60405180910390f35b6101c660048036036101c19190810190614319565b61120a565b6040516101d4929190614a27565b60405180910390f35b6101f760048036036101f29190810190614045565b6113dd565b604051610205929190614a27565b60405180910390f35b61022860048036036102239190810190614380565b611504565b60405161023591906149ea565b60405180910390f35b6102586004803603610253919081019061401c565b6115de565b6040516102659190614abe565b60405180910390f35b610288600480360361028391908101906141c3565b61185f565b604051610296929190614a57565b60405180910390f35b6102b960048036036102b491908101906141c3565b611a83565b6040516102c69190614b24565b60405180910390f35b6102e960048036036102e49190810190614099565b611cbe565b6040516102f7929190614a27565b60405180910390f35b61031a60048036036103159190810190614045565b612130565b604051610328929190614a27565b60405180910390f35b61034b600480360361034691908101906141c3565b612257565b604051610359929190614a57565b60405180910390f35b61037c600480360361037791908101906141c3565b61247b565b6040516103899190614b02565b60405180910390f35b6103ac60048036036103a79190810190614045565b612c69565b6040516103ba929190614a27565b60405180910390f35b6103dd60048036036103d89190810190614045565b612fd8565b6040516103ec93929190614a80565b60405180910390f35b61040f600480360361040a91908101906143c1565b613275565b60405161041c9190614a0c565b60405180910390f35b61043f600480360361043a9190810190614319565b6132ce565b60405161044d929190614a27565b60405180910390f35b610470600480360361046b9190810190614045565b6134e8565b60405161047e929190614a27565b60405180910390f35b600060608473ffffffffffffffffffffffffffffffffffffffff163373ffffffffffffffffffffffffffffffffffffffff161415610632576104d88460405180602001604052806000815250613275565b156105a25761051c6040518060400160405280600381526020017f2d2d2d000000000000000000000000000000000000000000000000000000000081525084613857565b6000808773ffffffffffffffffffffffffffffffffffffffff1673ffffffffffffffffffffffffffffffffffffffff1681526020019081526020016000206009016000820151816000019080519060200190610579929190613a1b565b506020820151816001015590505060016040518060200160405280600081525091509150610652565b6105ac8484613857565b6000808773ffffffffffffffffffffffffffffffffffffffff1673ffffffffffffffffffffffffffffffffffffffff1681526020019081526020016000206009016000820151816000019080519060200190610609929190613a1b565b506020820151816001015590505060016040518060200160405280600081525091509150610652565b6000604051806080016040528060498152602001614e9260499139915091505b935093915050565b60008060008773ffffffffffffffffffffffffffffffffffffffff1673ffffffffffffffffffffffffffffffffffffffff16815260200190815260200160002060040160009054906101000a900460ff161580156106f357506106f2826040518060400160405280600481526020017f7375646f00000000000000000000000000000000000000000000000000000000815250613275565b5b15610b8d5760008060008873ffffffffffffffffffffffffffffffffffffffff1673ffffffffffffffffffffffffffffffffffffffff168152602001908152602001600020905085816000019080519060200190610752929190613a9b565b50600081600101819055506107768560405180602001604052806000815250613275565b1561080b576040518060400160405280600381526020017f2d2d2d00000000000000000000000000000000000000000000000000000000008152506000808973ffffffffffffffffffffffffffffffffffffffff1673ffffffffffffffffffffffffffffffffffffffff1681526020019081526020016000206002019080519060200190610805929190613a9b565b50610862565b846000808973ffffffffffffffffffffffffffffffffffffffff1673ffffffffffffffffffffffffffffffffffffffff1681526020019081526020016000206002019080519060200190610860929190613a9b565b505b61087b8560405180602001604052806000815250613275565b15610910576040518060400160405280600381526020017f2d2d2d00000000000000000000000000000000000000000000000000000000008152506000808973ffffffffffffffffffffffffffffffffffffffff1673ffffffffffffffffffffffffffffffffffffffff168152602001908152602001600020600301908051906020019061090a929190613a9b565b50610967565b836000808973ffffffffffffffffffffffffffffffffffffffff1673ffffffffffffffffffffffffffffffffffffffff1681526020019081526020016000206003019080519060200190610965929190613a9b565b505b6109a76040518060400160405280600381526020017f50687000000000000000000000000000000000000000000000000000000000008152506000613857565b6000808973ffffffffffffffffffffffffffffffffffffffff1673ffffffffffffffffffffffffffffffffffffffff1681526020019081526020016000206007016000820151816000019080519060200190610a04929190613a1b565b5060208201518160010155905050610a526040518060400160405280600381526020017f50687000000000000000000000000000000000000000000000000000000000008152506000613857565b6000808973ffffffffffffffffffffffffffffffffffffffff1673ffffffffffffffffffffffffffffffffffffffff1681526020019081526020016000206009016000820151816000019080519060200190610aaf929190613a1b565b506020820151816001015590505060018160040160006101000a81548160ff02191690831515021790555060018790806001815401808255809150509060018203906000526020600020016000909192909190916101000a81548173ffffffffffffffffffffffffffffffffffffffff021916908373ffffffffffffffffffffffffffffffffffffffff160217905550508673ffffffffffffffffffffffffffffffffffffffff167fb1884ff48769d3ae2480ee09b28de551608fd66dad916f87d568c60fad7c512f60405160405180910390a26001915050610b92565b600090505b95945050505050565b610ba3613b1b565b610be2826040518060400160405280600481526020017f7375646f00000000000000000000000000000000000000000000000000000000815250613275565b8015610c1a57508273ffffffffffffffffffffffffffffffffffffffff163373ffffffffffffffffffffffffffffffffffffffff1614155b80610c5057508273ffffffffffffffffffffffffffffffffffffffff163373ffffffffffffffffffffffffffffffffffffffff16145b15611203576000808473ffffffffffffffffffffffffffffffffffffffff1673ffffffffffffffffffffffffffffffffffffffff16815260200190815260200160002060405180610120016040529081600082018054600181600116156101000203166002900480601f016020809104026020016040519081016040528092919081815260200182805460018160011615610100020316600290048015610d385780601f10610d0d57610100808354040283529160200191610d38565b820191906000526020600020905b815481529060010190602001808311610d1b57829003601f168201915b5050505050815260200160018201548152602001600282018054600181600116156101000203166002900480601f016020809104026020016040519081016040528092919081815260200182805460018160011615610100020316600290048015610de45780601f10610db957610100808354040283529160200191610de4565b820191906000526020600020905b815481529060010190602001808311610dc757829003601f168201915b50505050508152602001600382018054600181600116156101000203166002900480601f016020809104026020016040519081016040528092919081815260200182805460018160011615610100020316600290048015610e865780601f10610e5b57610100808354040283529160200191610e86565b820191906000526020600020905b815481529060010190602001808311610e6957829003601f168201915b505050505081526020016004820160009054906101000a900460ff1615151515815260200160058201805480602002602001604051908101604052809291908181526020016000905b82821015610f8b578382906000526020600020018054600181600116156101000203166002900480601f016020809104026020016040519081016040528092919081815260200182805460018160011615610100020316600290048015610f775780601f10610f4c57610100808354040283529160200191610f77565b820191906000526020600020905b815481529060010190602001808311610f5a57829003601f168201915b505050505081526020019060010190610ecf565b50505050815260200160068201805480602002602001604051908101604052809291908181526020016000905b82821015611074578382906000526020600020018054600181600116156101000203166002900480601f0160208091040260200160405190810160405280929190818152602001828054600181600116156101000203166002900480156110605780601f1061103557610100808354040283529160200191611060565b820191906000526020600020905b81548152906001019060200180831161104357829003601f168201915b505050505081526020019060010190610fb8565b50505050815260200160078201604051806040016040529081600082018054600181600116156101000203166002900480601f0160208091040260200160405190810160405280929190818152602001828054600181600116156101000203166002900480156111255780601f106110fa57610100808354040283529160200191611125565b820191906000526020600020905b81548152906001019060200180831161110857829003601f168201915b50505050508152602001600182015481525050815260200160098201604051806040016040529081600082018054600181600116156101000203166002900480601f0160208091040260200160405190810160405280929190818152602001828054600181600116156101000203166002900480156111e55780601f106111ba576101008083540402835291602001916111e5565b820191906000526020600020905b8154815290600101906020018083116111c857829003601f168201915b50505050508152602001600182015481525050815250509050611204565b5b92915050565b600060608473ffffffffffffffffffffffffffffffffffffffff163373ffffffffffffffffffffffffffffffffffffffff1614156113b55761125b8460405180602001604052806000815250613275565b156113255761129f6040518060400160405280600381526020017f2d2d2d000000000000000000000000000000000000000000000000000000000081525084613857565b6000808773ffffffffffffffffffffffffffffffffffffffff1673ffffffffffffffffffffffffffffffffffffffff16815260200190815260200160002060070160008201518160000190805190602001906112fc929190613a1b565b5060208201518160010155905050600160405180602001604052806000815250915091506113d5565b61132f8484613857565b6000808773ffffffffffffffffffffffffffffffffffffffff1673ffffffffffffffffffffffffffffffffffffffff168152602001908152602001600020600701600082015181600001908051906020019061138c929190613a1b565b5060208201518160010155905050600160405180602001604052806000815250915091506113d5565b6000604051806080016040528060498152602001614e9260499139915091505b935093915050565b600060606000808573ffffffffffffffffffffffffffffffffffffffff1673ffffffffffffffffffffffffffffffffffffffff16815260200190815260200160002060040160009054906101000a900460ff16801561146757508373ffffffffffffffffffffffffffffffffffffffff163373ffffffffffffffffffffffffffffffffffffffff16145b156114dd57826000808673ffffffffffffffffffffffffffffffffffffffff1673ffffffffffffffffffffffffffffffffffffffff16815260200190815260200160002060020190805190602001906114c1929190613a9b565b50600160405180602001604052806000815250915091506114fd565b6000604051806080016040528060498152602001614e9260499139915091505b9250929050565b6060611545826040518060400160405280600481526020017f7375646f00000000000000000000000000000000000000000000000000000000815250613275565b156115d85760018054806020026020016040519081016040528092919081815260200182805480156115cc57602002820191906000526020600020905b8160009054906101000a900473ffffffffffffffffffffffffffffffffffffffff1673ffffffffffffffffffffffffffffffffffffffff1681526020019060010190808311611582575b505050505090506115d9565b5b919050565b606060008273ffffffffffffffffffffffffffffffffffffffff1660001b905060606040518060400160405280601081526020017f303132333435363738396162636465660000000000000000000000000000000081525090506060602a6040519080825280601f01601f19166020018201604052801561166e5781602001600182028038833980820191505090505b5090507f30000000000000000000000000000000000000000000000000000000000000008160008151811061169f57fe5b60200101907effffffffffffffffffffffffffffffffffffffffffffffffffffffffffffff1916908160001a9053507f7800000000000000000000000000000000000000000000000000000000000000816001815181106116fc57fe5b60200101907effffffffffffffffffffffffffffffffffffffffffffffffffffffffffffff1916908160001a90535060008090505b60148110156118535782600485600c84016020811061174c57fe5b1a60f81b7effffffffffffffffffffffffffffffffffffffffffffffffffffffffffffff1916901c60f81c60ff168151811061178457fe5b602001015160f81c60f81b8260028302600201815181106117a157fe5b60200101907effffffffffffffffffffffffffffffffffffffffffffffffffffffffffffff1916908160001a90535082600f60f81b85600c8401602081106117e557fe5b1a60f81b1660f81c60ff16815181106117fa57fe5b602001015160f81c60f81b82600283026003018151811061181757fe5b60200101907effffffffffffffffffffffffffffffffffffffffffffffffffffffffffffff1916908160001a9053508080600101915050611731565b50809350505050919050565b6000808473ffffffffffffffffffffffffffffffffffffffff163373ffffffffffffffffffffffffffffffffffffffff1614806118d757506118d6836040518060400160405280600481526020017f7375646f00000000000000000000000000000000000000000000000000000000815250613275565b5b15611a70576000809050600080905060008090505b6000808973ffffffffffffffffffffffffffffffffffffffff1673ffffffffffffffffffffffffffffffffffffffff16815260200190815260200160002060050180549050811015611a4a57611a306000808a73ffffffffffffffffffffffffffffffffffffffff1673ffffffffffffffffffffffffffffffffffffffff168152602001908152602001600020600501828154811061198757fe5b906000526020600020018054600181600116156101000203166002900480601f016020809104026020016040519081016040528092919081815260200182805460018160011615610100020316600290048015611a255780601f106119fa57610100808354040283529160200191611a25565b820191906000526020600020905b815481529060010190602001808311611a0857829003601f168201915b505050505088613275565b15611a3d57600192508091505b80806001019150506118ec565b508115611a5f57600181935093505050611a7b565b600080809050935093505050611a7b565b600080809050915091505b935093915050565b611a8b613b75565b611aca826040518060400160405280600481526020017f7375646f00000000000000000000000000000000000000000000000000000000815250613275565b8015611b0257508373ffffffffffffffffffffffffffffffffffffffff163373ffffffffffffffffffffffffffffffffffffffff1614155b80611b3857508373ffffffffffffffffffffffffffffffffffffffff163373ffffffffffffffffffffffffffffffffffffffff16145b15611cb657600080611b4b868686612257565b809250819350505060011515600386604051611b6791906149a4565b908152602001604051809103902060010160019054906101000a900460ff161515148015611b925750815b15611cb357600385604051611ba791906149a4565b9081526020016040518091039020604051806060016040529081600082018054600181600116156101000203166002900480601f016020809104026020016040519081016040528092919081815260200182805460018160011615610100020316600290048015611c595780601f10611c2e57610100808354040283529160200191611c59565b820191906000526020600020905b815481529060010190602001808311611c3c57829003601f168201915b505050505081526020016001820160009054906101000a900460ff166003811115611c8057fe5b6003811115611c8b57fe5b81526020016001820160019054906101000a900460ff16151515158152505092505050611cb7565b50505b5b9392505050565b6000606080611ccc8b6115de565b8a604051602001611cde9291906149bb565b60405160208183030381529060405290508a73ffffffffffffffffffffffffffffffffffffffff163373ffffffffffffffffffffffffffffffffffffffff161415612102576000600282604051611d3591906149a4565b9081526020016040518091039020905089600081518110611d5257fe5b6020026020010151816000019080519060200190611d71929190613a9b565b5089600181518110611d7f57fe5b6020026020010151816001019080519060200190611d9e929190613a9b565b5089600281518110611dac57fe5b6020026020010151816006019080519060200190611dcb929190613a9b565b5089600381518110611dd957fe5b6020026020010151816007019080519060200190611df8929190613a9b565b5089600481518110611e0657fe5b6020026020010151816008019080519060200190611e25929190613a9b565b5089600581518110611e3357fe5b6020026020010151816009019080519060200190611e52929190613a9b565b5089600681518110611e6057fe5b602002602001015181600a019080519060200190611e7f929190613a9b565b5089600781518110611e8d57fe5b602002602001015181600d019080519060200190611eac929190613a9b565b50611edf89600081518110611ebd57fe5b60200260200101518a600181518110611ed257fe5b602002602001015161387c565b816002016000820151816000015560208201518160010160006101000a81548160ff0219169083600c811115611f1157fe5b0217905550905050611f4c88600081518110611f2957fe5b602002602001015189600181518110611f3e57fe5b6020026020010151896138b4565b816004016000820151816000015560208201518160010160006101000a81548160ff0219169083600c811115611f7e57fe5b021790555060408201518160010160016101000a81548160ff021916908315150217905550905050611fb08686613857565b81600b016000820151816000019080519060200190611fd0929190613a1b565b5060208201518160010155905050600181600e0160006101000a81548160ff0219169083151502179055506000806120188e856040518060200160405280600081525061185f565b80925081935050506000151582151514801561205f575060028460405161203f91906149a4565b9081526020016040518091039020600e0160009054906101000a900460ff165b156120e3576000808f73ffffffffffffffffffffffffffffffffffffffff1673ffffffffffffffffffffffffffffffffffffffff1681526020019081526020016000206005018490806001815401808255809150509060018203906000526020600020016000909192909190915090805190602001906120e0929190613a9b565b50505b6001604051806020016040528060008152509550955050505050612123565b6000604051806080016040528060498152602001614e926049913992509250505b9850989650505050505050565b600060606000808573ffffffffffffffffffffffffffffffffffffffff1673ffffffffffffffffffffffffffffffffffffffff16815260200190815260200160002060040160009054906101000a900460ff1680156121ba57508373ffffffffffffffffffffffffffffffffffffffff163373ffffffffffffffffffffffffffffffffffffffff16145b1561223057826000808673ffffffffffffffffffffffffffffffffffffffff1673ffffffffffffffffffffffffffffffffffffffff1681526020019081526020016000206003019080519060200190612214929190613a9b565b5060016040518060200160405280600081525091509150612250565b6000604051806080016040528060498152602001614e9260499139915091505b9250929050565b6000808473ffffffffffffffffffffffffffffffffffffffff163373ffffffffffffffffffffffffffffffffffffffff1614806122cf57506122ce836040518060400160405280600481526020017f7375646f00000000000000000000000000000000000000000000000000000000815250613275565b5b15612468576000809050600080905060008090505b6000808973ffffffffffffffffffffffffffffffffffffffff1673ffffffffffffffffffffffffffffffffffffffff16815260200190815260200160002060060180549050811015612442576124286000808a73ffffffffffffffffffffffffffffffffffffffff1673ffffffffffffffffffffffffffffffffffffffff168152602001908152602001600020600601828154811061237f57fe5b906000526020600020018054600181600116156101000203166002900480601f01602080910402602001604051908101604052809291908181526020018280546001816001161561010002031660029004801561241d5780601f106123f25761010080835404028352916020019161241d565b820191906000526020600020905b81548152906001019060200180831161240057829003601f168201915b505050505088613275565b1561243557600192508091505b80806001019150506122e4565b50811561245757600181935093505050612473565b600080809050935093505050612473565b600080809050915091505b935093915050565b612483613ba3565b6124c2826040518060400160405280600481526020017f7375646f00000000000000000000000000000000000000000000000000000000815250613275565b80156124fa57508373ffffffffffffffffffffffffffffffffffffffff163373ffffffffffffffffffffffffffffffffffffffff1614155b8061253057508373ffffffffffffffffffffffffffffffffffffffff163373ffffffffffffffffffffffffffffffffffffffff16145b15612c615760008061254386868661185f565b80925081935050506001151560028660405161255f91906149a4565b9081526020016040518091039020600e0160009054906101000a900460ff16151514801561258a5750815b15612c5e5760028560405161259f91906149a4565b908152602001604051809103902060405180610180016040529081600082018054600181600116156101000203166002900480601f0160208091040260200160405190810160405280929190818152602001828054600181600116156101000203166002900480156126525780601f1061262757610100808354040283529160200191612652565b820191906000526020600020905b81548152906001019060200180831161263557829003601f168201915b50505050508152602001600182018054600181600116156101000203166002900480601f0160208091040260200160405190810160405280929190818152602001828054600181600116156101000203166002900480156126f45780601f106126c9576101008083540402835291602001916126f4565b820191906000526020600020905b8154815290600101906020018083116126d757829003601f168201915b5050505050815260200160028201604051806040016040529081600082015481526020016001820160009054906101000a900460ff16600c81111561273557fe5b600c81111561274057fe5b81525050815260200160048201604051806060016040529081600082015481526020016001820160009054906101000a900460ff16600c81111561278057fe5b600c81111561278b57fe5b81526020016001820160019054906101000a900460ff1615151515815250508152602001600682018054600181600116156101000203166002900480601f0160208091040260200160405190810160405280929190818152602001828054600181600116156101000203166002900480156128475780601f1061281c57610100808354040283529160200191612847565b820191906000526020600020905b81548152906001019060200180831161282a57829003601f168201915b50505050508152602001600782018054600181600116156101000203166002900480601f0160208091040260200160405190810160405280929190818152602001828054600181600116156101000203166002900480156128e95780601f106128be576101008083540402835291602001916128e9565b820191906000526020600020905b8154815290600101906020018083116128cc57829003601f168201915b50505050508152602001600882018054600181600116156101000203166002900480601f01602080910402602001604051908101604052809291908181526020018280546001816001161561010002031660029004801561298b5780601f106129605761010080835404028352916020019161298b565b820191906000526020600020905b81548152906001019060200180831161296e57829003601f168201915b50505050508152602001600982018054600181600116156101000203166002900480601f016020809104026020016040519081016040528092919081815260200182805460018160011615610100020316600290048015612a2d5780601f10612a0257610100808354040283529160200191612a2d565b820191906000526020600020905b815481529060010190602001808311612a1057829003601f168201915b50505050508152602001600a82018054600181600116156101000203166002900480601f016020809104026020016040519081016040528092919081815260200182805460018160011615610100020316600290048015612acf5780601f10612aa457610100808354040283529160200191612acf565b820191906000526020600020905b815481529060010190602001808311612ab257829003601f168201915b50505050508152602001600b8201604051806040016040529081600082018054600181600116156101000203166002900480601f016020809104026020016040519081016040528092919081815260200182805460018160011615610100020316600290048015612b815780601f10612b5657610100808354040283529160200191612b81565b820191906000526020600020905b815481529060010190602001808311612b6457829003601f168201915b505050505081526020016001820154815250508152602001600d82018054600181600116156101000203166002900480601f016020809104026020016040519081016040528092919081815260200182805460018160011615610100020316600290048015612c315780601f10612c0657610100808354040283529160200191612c31565b820191906000526020600020905b815481529060010190602001808311612c1457829003601f168201915b50505050508152602001600e820160009054906101000a900460ff16151515158152505092505050612c62565b50505b5b9392505050565b600060603373ffffffffffffffffffffffffffffffffffffffff168473ffffffffffffffffffffffffffffffffffffffff161415612fb157600080612cbe86866040518060200160405280600081525061185f565b809250819350505060011515821515148015612d055750600285604051612ce591906149a4565b9081526020016040518091039020600e0160009054906101000a900460ff165b15612f94576000600286604051612d1c91906149a4565b9081526020016040518091039020600e0160006101000a81548160ff02191690831515021790555060008190505b60016000808973ffffffffffffffffffffffffffffffffffffffff1673ffffffffffffffffffffffffffffffffffffffff1681526020019081526020016000206005018054905003811015612e75576000808873ffffffffffffffffffffffffffffffffffffffff1673ffffffffffffffffffffffffffffffffffffffff1681526020019081526020016000206005016001820181548110612de857fe5b906000526020600020016000808973ffffffffffffffffffffffffffffffffffffffff1673ffffffffffffffffffffffffffffffffffffffff1681526020019081526020016000206005018281548110612e3e57fe5b906000526020600020019080546001816001161561010002031660029004612e67929190613c18565b508080600101915050612d4a565b506000808773ffffffffffffffffffffffffffffffffffffffff1673ffffffffffffffffffffffffffffffffffffffff16815260200190815260200160002060050160016000808973ffffffffffffffffffffffffffffffffffffffff1673ffffffffffffffffffffffffffffffffffffffff168152602001908152602001600020600501805490500381548110612f0957fe5b906000526020600020016000612f1f9190613c9f565b60016000808873ffffffffffffffffffffffffffffffffffffffff1673ffffffffffffffffffffffffffffffffffffffff16815260200190815260200160002060050181818054905003915081612f769190613ce7565b50600160405180602001604052806000815250935093505050612fd1565b600160405180602001604052806000815250935093505050612fd1565b60006040518060800160405280604f8152602001614edb604f9139915091505b9250929050565b60008060606000808673ffffffffffffffffffffffffffffffffffffffff1673ffffffffffffffffffffffffffffffffffffffff16815260200190815260200160002060040160009054906101000a900460ff16801561306357508473ffffffffffffffffffffffffffffffffffffffff163373ffffffffffffffffffffffffffffffffffffffff16145b156132485760036000808773ffffffffffffffffffffffffffffffffffffffff1673ffffffffffffffffffffffffffffffffffffffff1681526020019081526020016000206001015410156131e057836000808773ffffffffffffffffffffffffffffffffffffffff1673ffffffffffffffffffffffffffffffffffffffff1681526020019081526020016000206000019080519060200190613107929190613a9b565b5060016000808773ffffffffffffffffffffffffffffffffffffffff1673ffffffffffffffffffffffffffffffffffffffff1681526020019081526020016000206001016000828254019250508190555060016000808773ffffffffffffffffffffffffffffffffffffffff1673ffffffffffffffffffffffffffffffffffffffff168152602001908152602001600020600101546003036040518060400160405280600d81526020017f4e616d65206368616e676564210000000000000000000000000000000000000081525092509250925061326e565b60008060008773ffffffffffffffffffffffffffffffffffffffff1673ffffffffffffffffffffffffffffffffffffffff16815260200190815260200160002060010154604051806060016040528060338152602001614e5f6033913992509250925061326e565b600080809050604051806080016040528060498152602001614e92604991399250925092505b9250925092565b60008160405160200161328891906149a4565b60405160208183030381529060405280519060200120836040516020016132af91906149a4565b6040516020818303038152906040528051906020012014905092915050565b60006060806132dc866115de565b856040516020016132ee9291906149bb565b60405160208183030381529060405290508573ffffffffffffffffffffffffffffffffffffffff163373ffffffffffffffffffffffffffffffffffffffff1614156134bf57600060038260405161334591906149a4565b908152602001604051809103902090508581600001908051906020019061336d929190613a9b565b50613377856138f5565b8160010160006101000a81548160ff0219169083600381111561339657fe5b021790555060018160010160016101000a81548160ff0219169083151502179055506000806133d5898560405180602001604052806000815250612257565b80925081935050506000151582151514801561341c57506003846040516133fc91906149a4565b908152602001604051809103902060010160019054906101000a900460ff165b156134a0576000808a73ffffffffffffffffffffffffffffffffffffffff1673ffffffffffffffffffffffffffffffffffffffff16815260200190815260200160002060060184908060018154018082558091505090600182039060005260206000200160009091929091909150908051906020019061349d929190613a9b565b50505b60016040518060200160405280600081525095509550505050506134e0565b6000604051806080016040528060498152602001614e926049913992509250505b935093915050565b600060603373ffffffffffffffffffffffffffffffffffffffff168473ffffffffffffffffffffffffffffffffffffffff1614156138305760008061353d868660405180602001604052806000815250612257565b809250819350505060011515821515148015613584575060038560405161356491906149a4565b908152602001604051809103902060010160019054906101000a900460ff165b1561381357600060038660405161359b91906149a4565b908152602001604051809103902060010160016101000a81548160ff02191690831515021790555060008190505b60016000808973ffffffffffffffffffffffffffffffffffffffff1673ffffffffffffffffffffffffffffffffffffffff16815260200190815260200160002060060180549050038110156136f4576000808873ffffffffffffffffffffffffffffffffffffffff1673ffffffffffffffffffffffffffffffffffffffff168152602001908152602001600020600601600182018154811061366757fe5b906000526020600020016000808973ffffffffffffffffffffffffffffffffffffffff1673ffffffffffffffffffffffffffffffffffffffff16815260200190815260200160002060060182815481106136bd57fe5b9060005260206000200190805460018160011615610100020316600290046136e6929190613c18565b5080806001019150506135c9565b506000808773ffffffffffffffffffffffffffffffffffffffff1673ffffffffffffffffffffffffffffffffffffffff16815260200190815260200160002060060160016000808973ffffffffffffffffffffffffffffffffffffffff1673ffffffffffffffffffffffffffffffffffffffff16815260200190815260200160002060060180549050038154811061378857fe5b90600052602060002001600061379e9190613c9f565b60016000808873ffffffffffffffffffffffffffffffffffffffff1673ffffffffffffffffffffffffffffffffffffffff168152602001908152602001600020600601818180549050039150816137f59190613ce7565b50600160405180602001604052806000815250935093505050613850565b600160405180602001604052806000815250935093505050613850565b60006040518060800160405280604a8152602001614e15604a9139915091505b9250929050565b61385f613d13565b604051806040016040528084815260200183815250905092915050565b613884613d2d565b604051806040016040528084815260200161389e84613937565b600c8111156138a957fe5b815250905092915050565b6138bc613d52565b60405180606001604052808581526020016138d685613937565b600c8111156138e157fe5b815260200183151581525090509392505050565b600060018214156139095760019050613932565b600282141561391b5760029050613932565b600382141561392d5760039050613932565b600090505b919050565b6000600182141561394b5760019050613a16565b600282141561395d5760029050613a16565b600382141561396f5760039050613a16565b60048214156139815760049050613a16565b60058214156139935760059050613a16565b60068214156139a55760069050613a16565b60078214156139b75760079050613a16565b60088214156139c95760089050613a16565b60098214156139db5760099050613a16565b600a8214156139ed57600a9050613a16565b600b8214156139ff57600b9050613a16565b600c821415613a1157600c9050613a16565b600090505b919050565b828054600181600116156101000203166002900490600052602060002090601f016020900481019282601f10613a5c57805160ff1916838001178555613a8a565b82800160010185558215613a8a579182015b82811115613a89578251825591602001919060010190613a6e565b5b509050613a979190613d80565b5090565b828054600181600116156101000203166002900490600052602060002090601f016020900481019282601f10613adc57805160ff1916838001178555613b0a565b82800160010185558215613b0a579182015b82811115613b09578251825591602001919060010190613aee565b5b509050613b179190613d80565b5090565b604051806101200160405280606081526020016000815260200160608152602001606081526020016000151581526020016060815260200160608152602001613b62613da5565b8152602001613b6f613da5565b81525090565b60405180606001604052806060815260200160006003811115613b9457fe5b81526020016000151581525090565b6040518061018001604052806060815260200160608152602001613bc5613dbf565b8152602001613bd2613de4565b81526020016060815260200160608152602001606081526020016060815260200160608152602001613c02613da5565b8152602001606081526020016000151581525090565b828054600181600116156101000203166002900490600052602060002090601f016020900481019282601f10613c515780548555613c8e565b82800160010185558215613c8e57600052602060002091601f016020900482015b82811115613c8d578254825591600101919060010190613c72565b5b509050613c9b9190613d80565b5090565b50805460018160011615610100020316600290046000825580601f10613cc55750613ce4565b601f016020900490600052602060002090810190613ce39190613d80565b5b50565b815481835581811115613d0e57818360005260206000209182019101613d0d9190613e12565b5b505050565b604051806040016040528060608152602001600081525090565b6040518060400160405280600081526020016000600c811115613d4c57fe5b81525090565b6040518060600160405280600081526020016000600c811115613d7157fe5b81526020016000151581525090565b613da291905b80821115613d9e576000816000905550600101613d86565b5090565b90565b604051806040016040528060608152602001600081525090565b6040518060400160405280600081526020016000600c811115613dde57fe5b81525090565b6040518060600160405280600081526020016000600c811115613e0357fe5b81526020016000151581525090565b613e3b91905b80821115613e375760008181613e2e9190613c9f565b50600101613e18565b5090565b90565b600081359050613e4d81614dcf565b92915050565b600082601f830112613e6457600080fd5b8135613e77613e7282614b73565b614b46565b9150818183526020840193506020810190508360005b83811015613ebd5781358601613ea38882613f5f565b845260208401935060208301925050600181019050613e8d565b5050505092915050565b600082601f830112613ed857600080fd5b8135613eeb613ee682614b9b565b614b46565b91508181835260208401935060208101905083856020840282011115613f1057600080fd5b60005b83811015613f405781613f268882614007565b845260208401935060208301925050600181019050613f13565b5050505092915050565b600081359050613f5981614de6565b92915050565b600082601f830112613f7057600080fd5b8135613f83613f7e82614bc3565b614b46565b91508082526020830160208301858383011115613f9f57600080fd5b613faa838284614d62565b50505092915050565b600082601f830112613fc457600080fd5b8135613fd7613fd282614bef565b614b46565b91508082526020830160208301858383011115613ff357600080fd5b613ffe838284614d62565b50505092915050565b60008135905061401681614dfd565b92915050565b60006020828403121561402e57600080fd5b600061403c84828501613e3e565b91505092915050565b6000806040838503121561405857600080fd5b600061406685828601613e3e565b925050602083013567ffffffffffffffff81111561408357600080fd5b61408f85828601613fb3565b9150509250929050565b600080600080600080600080610100898b0312156140b657600080fd5b60006140c48b828c01613e3e565b985050602089013567ffffffffffffffff8111156140e157600080fd5b6140ed8b828c01613fb3565b975050604089013567ffffffffffffffff81111561410a57600080fd5b6141168b828c01613e53565b965050606089013567ffffffffffffffff81111561413357600080fd5b61413f8b828c01613ec7565b955050608089013567ffffffffffffffff81111561415c57600080fd5b6141688b828c01613ec7565b94505060a06141798b828c01613f4a565b93505060c089013567ffffffffffffffff81111561419657600080fd5b6141a28b828c01613fb3565b92505060e06141b38b828c01614007565b9150509295985092959890939650565b6000806000606084860312156141d857600080fd5b60006141e686828701613e3e565b935050602084013567ffffffffffffffff81111561420357600080fd5b61420f86828701613fb3565b925050604084013567ffffffffffffffff81111561422c57600080fd5b61423886828701613fb3565b9150509250925092565b600080600080600060a0868803121561425a57600080fd5b600061426888828901613e3e565b955050602086013567ffffffffffffffff81111561428557600080fd5b61429188828901613fb3565b945050604086013567ffffffffffffffff8111156142ae57600080fd5b6142ba88828901613fb3565b935050606086013567ffffffffffffffff8111156142d757600080fd5b6142e388828901613fb3565b925050608086013567ffffffffffffffff81111561430057600080fd5b61430c88828901613fb3565b9150509295509295909350565b60008060006060848603121561432e57600080fd5b600061433c86828701613e3e565b935050602084013567ffffffffffffffff81111561435957600080fd5b61436586828701613fb3565b925050604061437686828701614007565b9150509250925092565b60006020828403121561439257600080fd5b600082013567ffffffffffffffff8111156143ac57600080fd5b6143b884828501613fb3565b91505092915050565b600080604083850312156143d457600080fd5b600083013567ffffffffffffffff8111156143ee57600080fd5b6143fa85828601613fb3565b925050602083013567ffffffffffffffff81111561441757600080fd5b61442385828601613fb3565b9150509250929050565b60006144398383614459565b60208301905092915050565b600061445183836145e1565b905092915050565b61446281614cd0565b82525050565b600061447382614c3b565b61447d8185614c81565b935061448883614c1b565b8060005b838110156144b95781516144a0888261442d565b97506144ab83614c67565b92505060018101905061448c565b5085935050505092915050565b60006144d182614c46565b6144db8185614c92565b9350836020820285016144ed85614c2b565b8060005b85811015614529578484038952815161450a8582614445565b945061451583614c74565b925060208a019950506001810190506144f1565b50829750879550505050505092915050565b61454481614ce2565b82525050565b61455381614ce2565b82525050565b61456281614d3e565b82525050565b61457181614d50565b82525050565b600061458282614c5c565b61458c8185614cb4565b935061459c818560208601614d71565b6145a581614da4565b840191505092915050565b60006145bb82614c5c565b6145c58185614cc5565b93506145d5818560208601614d71565b80840191505092915050565b60006145ec82614c51565b6145f68185614ca3565b9350614606818560208601614d71565b61460f81614da4565b840191505092915050565b6000614627600183614cc5565b91507f2d000000000000000000000000000000000000000000000000000000000000006000830152600182019050919050565b600061012083016000830151848203600086015261467882826145e1565b915050602083015161468d6020860182614986565b50604083015184820360408601526146a582826145e1565b915050606083015184820360608601526146bf82826145e1565b91505060808301516146d4608086018261453b565b5060a083015184820360a08601526146ec82826144c6565b91505060c083015184820360c086015261470682826144c6565b91505060e083015184820360e08601526147208282614949565b91505061010083015184820361010086015261473c8282614949565b9150508091505092915050565b60608201600082015161475f6000850182614986565b5060208201516147726020850182614559565b506040820151614785604085018261453b565b50505050565b6040820160008201516147a16000850182614986565b5060208201516147b46020850182614559565b50505050565b60006101e08301600083015184820360008601526147d882826145e1565b915050602083015184820360208601526147f282826145e1565b9150506040830151614807604086018261478b565b50606083015161481a6080860182614749565b50608083015184820360e086015261483282826145e1565b91505060a083015184820361010086015261484d82826145e1565b91505060c083015184820361012086015261486882826145e1565b91505060e083015184820361014086015261488382826145e1565b91505061010083015184820361016086015261489f82826145e1565b9150506101208301518482036101808601526148bb8282614949565b9150506101408301518482036101a08601526148d782826145e1565b9150506101608301516148ee6101c086018261453b565b508091505092915050565b6000606083016000830151848203600086015261491682826145e1565b915050602083015161492b6020860182614568565b50604083015161493e604086018261453b565b508091505092915050565b6000604083016000830151848203600086015261496682826145e1565b915050602083015161497b6020860182614986565b508091505092915050565b61498f81614d34565b82525050565b61499e81614d34565b82525050565b60006149b082846145b0565b915081905092915050565b60006149c782856145b0565b91506149d28261461a565b91506149de82846145b0565b91508190509392505050565b60006020820190508181036000830152614a048184614468565b905092915050565b6000602082019050614a21600083018461454a565b92915050565b6000604082019050614a3c600083018561454a565b8181036020830152614a4e8184614577565b90509392505050565b6000604082019050614a6c600083018561454a565b614a796020830184614995565b9392505050565b6000606082019050614a95600083018661454a565b614aa26020830185614995565b8181036040830152614ab48184614577565b9050949350505050565b60006020820190508181036000830152614ad88184614577565b905092915050565b60006020820190508181036000830152614afa818461465a565b905092915050565b60006020820190508181036000830152614b1c81846147ba565b905092915050565b60006020820190508181036000830152614b3e81846148f9565b905092915050565b6000604051905081810181811067ffffffffffffffff82111715614b6957600080fd5b8060405250919050565b600067ffffffffffffffff821115614b8a57600080fd5b602082029050602081019050919050565b600067ffffffffffffffff821115614bb257600080fd5b602082029050602081019050919050565b600067ffffffffffffffff821115614bda57600080fd5b601f19601f8301169050602081019050919050565b600067ffffffffffffffff821115614c0657600080fd5b601f19601f8301169050602081019050919050565b6000819050602082019050919050565b6000819050602082019050919050565b600081519050919050565b600081519050919050565b600081519050919050565b600081519050919050565b6000602082019050919050565b6000602082019050919050565b600082825260208201905092915050565b600082825260208201905092915050565b600082825260208201905092915050565b600082825260208201905092915050565b600081905092915050565b6000614cdb82614d14565b9050919050565b60008115159050919050565b6000819050614cfc82614db5565b919050565b6000819050614d0f82614dc2565b919050565b600073ffffffffffffffffffffffffffffffffffffffff82169050919050565b6000819050919050565b6000614d4982614cee565b9050919050565b6000614d5b82614d01565b9050919050565b82818337600083830152505050565b60005b83811015614d8f578082015181840152602081019050614d74565b83811115614d9e576000848401525b50505050565b6000601f19601f8301169050919050565b600d8110614dbf57fe5b50565b60048110614dcc57fe5b50565b614dd881614cd0565b8114614de357600080fd5b50565b614def81614ce2565b8114614dfa57600080fd5b50565b614e0681614d34565b8114614e1157600080fd5b5056fe4f6e65206d7573742062652061626c6520746f206368616e6765206f776e20736b696c6c73206279206c6f6767696e6720696e2077697468206f6e652773206f776e206164647265737354686973206163636f756e74206578636565647320696e20746865206e756d626572206f66206e616d65206368616e6765732e4163636f756e7420686f6c64657220646f6573206e6f7420657869737473206f7220796f7520617265206e6f742074686520686f6c646572206f662074686973206163636f756e742e4f6e65206d7573742062652061626c6520746f206368616e6765206f776e20657870657269656e636573206279206c6f6767696e6720696e2077697468206f6e652773206f776e2061646472657373a365627a7a72315820c090c29438b5da649455b005ce1dfd0711cf4e67fa7210a27c3a74f0aabe65646c6578706572696d656e74616cf564736f6c63430005100040",
  "source": "pragma solidity >=0.4.21 <0.7.0;\r\n\r\nimport \"./Migrations.sol\";\r\npragma experimental ABIEncoderV2;\r\n\r\ncontract Workforce {\r\n    enum ExpDurationMonth {Zero, January, February, March, April, May, June, July, August, September, October, November, December}\r\n    enum SkillLevel {Default, Beginner, Intermediate, Advanced}\r\n    enum ProficiencyLevel {Default, Novice, Fluent, Intermediate, Advanced, Superior} // Customized ACTFL Proficiency (American Council on the Teaching of Foreign Language)\r\n\r\n    struct Employee {\r\n        // Personal Information\r\n        string name;\r\n            uint nameChanges;\r\n        string physicalAddress;\r\n        string nationality;\r\n        bool exists;\r\n\r\n        // Experiences\r\n        string[] experienceIdentifiers;\r\n\r\n        // SKills\r\n        string[] skillIdentifiers;\r\n\r\n        // Salary Preference\r\n        Stipend salaryFlooring;\r\n        Stipend salaryCeiling;\r\n    }\r\n\r\n    struct Language {\r\n        string name;\r\n        ProficiencyLevel spokenProficiency;\r\n        ProficiencyLevel writtenProficiency;\r\n        bool exists;\r\n    }\r\n\r\n    struct Skill {\r\n        string name;\r\n        SkillLevel level;\r\n        bool exists;\r\n    }\r\n\r\n    struct Experience {\r\n        string positionTitle;\r\n        string companyName;\r\n        ExpDurationStart start;\r\n        ExpDurationEnd end;\r\n        string specialization;\r\n        string role;\r\n        string country;\r\n        string industry;\r\n        string positionLevel;\r\n        Stipend monthlySalary;\r\n        string description;\r\n        bool exists;\r\n    }\r\n\r\n    struct ExpDurationEnd {\r\n        uint year;\r\n        Workforce.ExpDurationMonth ExpDurationMonth;\r\n        bool present;\r\n    }\r\n\r\n    struct ExpDurationStart {\r\n        uint year;\r\n        Workforce.ExpDurationMonth ExpDurationMonth;\r\n    }\r\n\r\n    struct Stipend {\r\n        string currency;\r\n        uint amount;\r\n    }\r\n\r\n    mapping (address => Employee) employees;\r\n    address[] employeeAccts;\r\n    mapping (string => Experience) experiences;\r\n    mapping (string => Skill) skills;\r\n\r\n\r\n    event WorkforceAppend (address indexed _address);\r\n\r\n    function setEmployee (address _address, string memory _name, string memory _physicalAddress, string memory _nationality, string memory _administrativeCode) public returns (bool) {\r\n        if (!employees[_address].exists && compareStrings(_administrativeCode,\"sudo\")) {\r\n            Employee storage employee = employees[_address];\r\n            employee.name = _name;\r\n            employee.nameChanges = 0;\r\n            if (compareStrings(_physicalAddress,\"\")) {\r\n                employees[_address].physicalAddress = \"---\";\r\n            } else {\r\n                employees[_address].physicalAddress = _physicalAddress;\r\n            }\r\n            if (compareStrings(_physicalAddress,\"\")) {\r\n                employees[_address].nationality = \"---\";\r\n            } else {\r\n                employees[_address].nationality = _nationality;\r\n            }\r\n            employees[_address].salaryFlooring = createStipend(\"Php\", 0);\r\n            employees[_address].salaryCeiling = createStipend(\"Php\", 0);\r\n            employee.exists = true;\r\n            employeeAccts.push(_address);\r\n            emit Workforce.WorkforceAppend(_address);\r\n            return true;\r\n        } else {\r\n            return false;\r\n        }\r\n    }\r\n\r\n    function getEmployees(string memory _administrativeCode) view public returns(address[] memory) {\r\n        if (compareStrings(_administrativeCode,\"sudo\")) {\r\n            return employeeAccts;\r\n        }\r\n    }\r\n\r\n    function getEmployeeProfile(address _address, string memory _administrativeCode) view public returns(Employee memory) {\r\n        if ((compareStrings(_administrativeCode,\"sudo\") && msg.sender != _address) || (msg.sender == _address)) {\r\n            return employees[_address];\r\n        }\r\n    }\r\n\r\n    function updateName (address _address, string memory _name) public returns (bool, uint, string memory) {\r\n        if (employees[_address].exists && msg.sender == _address) {\r\n            if (employees[_address].nameChanges < 3) {\r\n                employees[_address].name = _name;\r\n                employees[_address].nameChanges+=1;\r\n                return (true, 3-employees[_address].nameChanges, \"Name changed!\" );\r\n            } else {\r\n                return (false, employees[_address].nameChanges, \"This account exceeds in the number of name changes.\");\r\n            }\r\n        } else {\r\n            return (false, 0, \"Account holder does not exists or you are not the holder of this account.\");\r\n        }\r\n    }\r\n\r\n    function updateAddress(address _address, string memory _physicalAddress) public returns (bool, string memory) {\r\n        if (employees[_address].exists && msg.sender == _address) {\r\n            employees[_address].physicalAddress = _physicalAddress;\r\n            return (true, \"\");\r\n        } else {\r\n            return (false, \"Account holder does not exists or you are not the holder of this account.\");\r\n        }\r\n    }\r\n\r\n    function updateNationality(address _address, string memory _nationality) public returns (bool, string memory) {\r\n        if (employees[_address].exists && msg.sender == _address) {\r\n            employees[_address].nationality = _nationality;\r\n            return (true, \"\");\r\n        } else {\r\n            return (false, \"Account holder does not exists or you are not the holder of this account.\");\r\n        }\r\n    }\r\n\r\n    // Salary Preference Functions\r\n\r\n    function setSalaryFlooring(address _address, string memory _currency, uint _amount) public returns (bool, string memory){\r\n        if (msg.sender == _address) {\r\n            if (compareStrings(_currency,\"\")) {\r\n                employees[_address].salaryFlooring = createStipend(\"---\", _amount);\r\n                return (true, \"\");\r\n            } else {\r\n                employees[_address].salaryFlooring = createStipend(_currency, _amount);\r\n                return (true, \"\");\r\n            }\r\n        } else {\r\n            return (false, \"Account holder does not exists or you are not the holder of this account.\");\r\n        }\r\n    }\r\n\r\n    function setSalaryCeiling(address _address, string memory _currency, uint _amount) public returns (bool, string memory){\r\n        if (msg.sender == _address) {\r\n            if (compareStrings(_currency,\"\")) {\r\n                employees[_address].salaryCeiling = createStipend(\"---\", _amount);\r\n                return (true, \"\");\r\n            } else {\r\n                employees[_address].salaryCeiling = createStipend(_currency, _amount);\r\n                return (true, \"\");\r\n            }\r\n            return (false, \"Changing salary ceiling failed for a reason\");\r\n        } else {\r\n            return (false, \"Account holder does not exists or you are not the holder of this account.\");\r\n        }\r\n    }\r\n\r\n    // Skill Functions\r\n\r\n    function getSkillDetails(address _address, string memory _skillName, string memory _administrativeCode) view public returns (Skill memory) {\r\n        if ((compareStrings(_administrativeCode,\"sudo\") && msg.sender != _address) || (msg.sender == _address)) {\r\n            bool _skillExists;\r\n            uint _skillIndex;\r\n            (_skillExists, _skillIndex) = skillFound(_address, _skillName, _administrativeCode);\r\n            if (skills[_skillName].exists == true && _skillExists) {\r\n                return skills[_skillName];\r\n            }\r\n        }\r\n    }\r\n\r\n    function updateSkill(\r\n        address _address, string memory _skillName,\r\n        uint _level\r\n    ) public returns (bool, string memory) {\r\n        string memory tempSkillIdentifier = string(abi.encodePacked(addressToString(_address), \"-\", _skillName));\r\n        if (msg.sender == _address) {\r\n            Skill storage skill = skills[tempSkillIdentifier];\r\n            skill.name = _skillName;\r\n            skill.level = selectSkillLevel(_level);\r\n            skill.exists = true;\r\n            bool _skillFound;\r\n            uint _skillIndex;\r\n            (_skillFound, _skillIndex) = skillFound(_address, tempSkillIdentifier, \"\");\r\n            if (_skillFound == false && skills[tempSkillIdentifier].exists) {\r\n                employees[_address].skillIdentifiers.push(tempSkillIdentifier);\r\n            }\r\n            return (true, \"\");\r\n        } else {\r\n            return (false, \"Account holder does not exists or you are not the holder of this account.\");\r\n        }\r\n    }\r\n\r\n    function skillFound(address _address, string memory _skillName, string memory _administrativeCode) public view returns (bool, uint) {\r\n        if ((msg.sender == _address) || (compareStrings(_administrativeCode, \"sudo\"))) {\r\n            bool found = false;\r\n            uint index = 0;\r\n            for (uint i = 0; i < employees[_address].skillIdentifiers.length; i++) {\r\n                if (compareStrings(employees[_address].skillIdentifiers[i], _skillName)) {\r\n                    found = true;\r\n                    index = i;\r\n                }\r\n            }\r\n            if (found) {\r\n                return (true, index);\r\n            } else {\r\n                return (false, 0);\r\n            }\r\n        } else {\r\n            return (false, 0);\r\n        }\r\n    }\r\n\r\n    function deleteSkill(address _address, string memory _skillName) public returns (bool, string memory) {\r\n        if (_address == msg.sender) {\r\n            bool _skillFound;\r\n            uint _skillIndex;\r\n            (_skillFound, _skillIndex) = skillFound(_address, _skillName, \"\");\r\n            if (_skillFound == true && skills[_skillName].exists) {\r\n                skills[_skillName].exists = false;\r\n                for (uint i = _skillIndex; i<employees[_address].skillIdentifiers.length-1; i++){\r\n                    employees[_address].skillIdentifiers[i] = employees[_address].skillIdentifiers[i+1];\r\n                }\r\n                delete employees[_address].skillIdentifiers[employees[_address].skillIdentifiers.length-1];\r\n                employees[_address].skillIdentifiers.length-=1;\r\n                return (true, \"\");\r\n            }\r\n            return (true, \"\");\r\n        } else {\r\n            return (false, \"One must be able to change own skills by logging in with one's own address\");\r\n        }\r\n    }\r\n\r\n    // Experience Functions\r\n\r\n    function getExperienceDetails(address _address, string memory _experienceName, string memory _administrativeCode) view public returns (Experience memory) {\r\n        if ((compareStrings(_administrativeCode,\"sudo\") && msg.sender != _address) || (msg.sender == _address)) {\r\n            bool _experienceExists;\r\n            uint _experienceIndex;\r\n            (_experienceExists, _experienceIndex) = experienceFound(_address, _experienceName, _administrativeCode);\r\n            if (experiences[_experienceName].exists == true && _experienceExists) {\r\n                return experiences[_experienceName];\r\n            }\r\n        }\r\n    }\r\n\r\n    function updateExperience(\r\n        address _address, string memory _experienceName,\r\n        string[] memory _details, uint[] memory _start, uint[] memory _end, bool _present,\r\n        string memory _currency, uint _amount\r\n    ) public returns (bool, string memory) {\r\n        string memory tempExperienceIdentifier = string(abi.encodePacked(addressToString(_address), \"-\", _experienceName));\r\n        if (msg.sender == _address) {\r\n            Experience storage experience = experiences[tempExperienceIdentifier];\r\n            experience.positionTitle = _details[0];\r\n            experience.companyName = _details[1];\r\n            experience.specialization = _details[2];\r\n            experience.role = _details[3];\r\n            experience.country = _details[4];\r\n            experience.industry = _details[5];\r\n            experience.positionLevel = _details[6];\r\n            experience.description = _details[7];\r\n            experience.start = createExpDurationStart(_start[0], _start[1]);\r\n            experience.end = createExpDurationEnd(_end[0], _end[1], _present);\r\n            experience.monthlySalary = createStipend(_currency, _amount);\r\n            experience.exists = true;\r\n            bool _experienceFound;\r\n            uint _experienceIndex;\r\n            (_experienceFound, _experienceIndex) = experienceFound(_address, tempExperienceIdentifier, \"\");\r\n            if (_experienceFound == false && experiences[tempExperienceIdentifier].exists) {\r\n                employees[_address].experienceIdentifiers.push(tempExperienceIdentifier);\r\n            }\r\n            return (true, \"\");\r\n        } else {\r\n            return (false, \"Account holder does not exists or you are not the holder of this account.\");\r\n        }\r\n    }\r\n\r\n    function experienceFound(address _address, string memory _experienceName, string memory _administrativeCode) public view returns (bool, uint) {\r\n        if ((msg.sender == _address) || (compareStrings(_administrativeCode, \"sudo\"))) {\r\n            bool found = false;\r\n            uint index = 0;\r\n            for (uint i = 0; i < employees[_address].experienceIdentifiers.length; i++) {\r\n                if (compareStrings(employees[_address].experienceIdentifiers[i], _experienceName)) {\r\n                    found = true;\r\n                    index = i;\r\n                }\r\n            }\r\n            if (found) {\r\n                return (true, index);\r\n            } else {\r\n                return (false, 0);\r\n            }\r\n        } else {\r\n            return (false, 0);\r\n        }\r\n    }\r\n\r\n    function deleteExperience(address _address, string memory _experienceName) public returns (bool, string memory) {\r\n        if (_address == msg.sender) {\r\n            bool _experienceFound;\r\n            uint _experienceIndex;\r\n            (_experienceFound, _experienceIndex) = experienceFound(_address, _experienceName, \"\");\r\n            if (_experienceFound == true && experiences[_experienceName].exists) {\r\n                experiences[_experienceName].exists = false;\r\n                for (uint i = _experienceIndex; i<employees[_address].experienceIdentifiers.length-1; i++){\r\n                    employees[_address].experienceIdentifiers[i] = employees[_address].experienceIdentifiers[i+1];\r\n                }\r\n                delete employees[_address].experienceIdentifiers[employees[_address].experienceIdentifiers.length-1];\r\n                employees[_address].experienceIdentifiers.length-=1;\r\n                return (true, \"\");\r\n            }\r\n            return (true, \"\");\r\n        } else {\r\n            return (false, \"One must be able to change own experiences by logging in with one's own address\");\r\n        }\r\n    }\r\n\r\n\r\n    // Auxiliary Functions\r\n    function compareStrings (string memory a, string memory b) public pure returns (bool) {\r\n        return (keccak256(abi.encodePacked((a))) == keccak256(abi.encodePacked((b))));\r\n    }\r\n\r\n    function addressToString (address x) public pure returns (string memory) {\r\n        bytes32 value = bytes32(uint256(x));\r\n        bytes memory alphabet = \"0123456789abcdef\";\r\n\r\n        bytes memory str = new bytes(42);\r\n        str[0] = '0';\r\n        str[1] = 'x';\r\n        for (uint i = 0; i < 20; i++) {\r\n            str[2+i*2] = alphabet[uint(uint8(value[i + 12] >> 4))];\r\n            str[3+i*2] = alphabet[uint(uint8(value[i + 12] & 0x0f))];\r\n        }\r\n        return string(str);\r\n    }\r\n\r\n    function selectExpDurationMonth (uint _monthIndex) internal pure returns (Workforce.ExpDurationMonth) {\r\n        if (_monthIndex == 1) return Workforce.ExpDurationMonth.January;\r\n        if (_monthIndex == 2) return Workforce.ExpDurationMonth.February;\r\n        if (_monthIndex == 3) return Workforce.ExpDurationMonth.March;\r\n        if (_monthIndex == 4) return Workforce.ExpDurationMonth.April;\r\n        if (_monthIndex == 5) return Workforce.ExpDurationMonth.May;\r\n        if (_monthIndex == 6) return Workforce.ExpDurationMonth.June;\r\n        if (_monthIndex == 7) return Workforce.ExpDurationMonth.July;\r\n        if (_monthIndex == 8) return Workforce.ExpDurationMonth.August;\r\n        if (_monthIndex == 9) return Workforce.ExpDurationMonth.September;\r\n        if (_monthIndex == 10) return Workforce.ExpDurationMonth.October;\r\n        if (_monthIndex == 11) return Workforce.ExpDurationMonth.November;\r\n        if (_monthIndex == 12) return Workforce.ExpDurationMonth.December;\r\n        return Workforce.ExpDurationMonth.Zero;\r\n    }\r\n\r\n    function selectSkillLevel (uint _levelIndex) internal pure returns (Workforce.SkillLevel) {\r\n        if (_levelIndex == 1) return Workforce.SkillLevel.Beginner;\r\n        if (_levelIndex == 2) return Workforce.SkillLevel.Intermediate;\r\n        if (_levelIndex == 3) return Workforce.SkillLevel.Advanced;\r\n        return Workforce.SkillLevel.Default;\r\n    }\r\n\r\n    function createExpDurationStart (uint _year, uint _month) internal pure returns (Workforce.ExpDurationStart memory) {\r\n        return Workforce.ExpDurationStart(uint(_year), selectExpDurationMonth(_month));\r\n    }\r\n\r\n    function createExpDurationEnd (uint _year, uint _month, bool _present) internal pure returns (Workforce.ExpDurationEnd memory) {\r\n        return Workforce.ExpDurationEnd(uint(_year), selectExpDurationMonth(_month), _present);\r\n    }\r\n\r\n    function createStipend (string memory _currency, uint _amount) internal pure returns (Workforce.Stipend memory){\r\n        return Workforce.Stipend(_currency, _amount);\r\n    }\r\n}",
  "sourcePath": "/mnt/c/digitalMe/contracts/Workforce.sol",
  "compiler": {
    "name": "solc",
    "version": "0.5.16+commit.9c3226ce.Emscripten.clang"
  },
  "schemaVersion": "3.2.0",
  "updatedAt": "2020-06-23T06:07:25.817Z",
  "networkType": "ethereum",
  "devdoc": {
    "methods": {}
  },
  "userdoc": {
    "methods": {}
  }
}